:100000000C9462000C9424030C94FD020C948A005E
:100010000C948A000C948A000C948A000C948A0038
:100020000C948A000C948A000C948A000C948A0028
:100030000C948A000C948A000C948A000C948A0018
:100040000C94B3020C948A000C9471030C944B032F
:100050000C948A000C948A000C948A000C948A00F8
:100060000C948A000C948A000000000023002600F3
:10007000290000000000240027002A0000000000E2
:10008000250028002B0004040404040404040202D4
:100090000202020203030303030301020408102007
:1000A0004080010204081020010204081020000012
:1000B0000008000201000003040700000000000027
:1000C0000000570511241FBECFEFD8E0DEBFCDBF23
:1000D00011E0A0E0B1E0E4E9FFE002C005900D927C
:1000E000A631B107D9F721E0A6E1B1E001C01D9228
:1000F000A43CB207E1F710E0C2E6D0E004C02197CB
:10010000FE010E94C207C136D107C9F70E94E80369
:100110000C94C8070C940000833081F028F48130DF
:1001200099F08230A9F008958730A9F08830C9F09D
:100130008430B1F4809180008F7D03C08091800075
:100140008F7780938000089584B58F7784BD08955C
:1001500084B58F7DFBCF8091B0008F778093B00006
:1001600008958091B0008F7DF9CF1F93CF93DF93D7
:10017000282F30E0F901E255FF4F8491F901E6564E
:10018000FF4FD491F901EA57FF4FC491CC23A9F056
:10019000162F81110E948C00EC2FF0E0EE0FFF1F54
:1001A000E458FF4FA591B4918FB7F894EC911111D9
:1001B00008C0D095DE23DC938FBFDF91CF911F91D4
:1001C0000895DE2BF8CFCF93DF9390E0FC01E65645
:1001D000FF4F24918A579F4FFC0184918823D1F0CF
:1001E00090E0880F991FFC01EE58FF4FA591B49144
:1001F000FC01E458FF4FC591D49161110EC09FB727
:10020000F8948C91E22FE0958E238C932881E22341
:10021000E8839FBFDF91CF9108958FB7F894EC9159
:10022000E22BEC938FBFF6CF1F93CF93DF93182F62
:10023000EB0161E00E94E300209739F460E0812F38
:10024000DF91CF911F910C94B500CF3FD10511F4F0
:1002500061E0F5CFE12FF0E0E255FF4FE491E330AC
:1002600031F140F4E130B1F0E230E1F0C038D105D5
:100270007CF7E4CFE73029F1E83059F1E430B1F709
:1002800080918000806280938000D0938B00C09327
:100290008A0004C084B5806884BDC7BDDF91CF915A
:1002A0001F91089584B5806284BDC8BDF7CF809149
:1002B0008000806880938000D0938900C09388007C
:1002C000EDCF8091B00080688093B000C093B30000
:1002D000E5CF8091B00080628093B000C093B400FD
:1002E000DDCF0895AF92BF92CF92DF92EF92FF924F
:1002F0000F931F93CF93DF936C017B018B01040F4E
:10030000151FEB015E01AE18BF08C017D10759F0E9
:100310006991D601ED91FC910190F081E02DC6012B
:100320000995892B79F7C501DF91CF911F910F9125
:10033000FF90EF90DF90CF90BF90AF900895FC01B9
:10034000538D448D252F30E0842F90E0821B930B3A
:10035000541710F0CF96089501970895FC01918DE0
:10036000828D981761F0A28DAE0FBF2FB11D5D96E3
:100370008C91928D9F5F9F73928F90E008958FEF85
:100380009FEF0895FC01918D828D981731F0828D39
:10039000E80FF11D858D90E008958FEF9FEF089590
:1003A000FC01918D228D892F90E0805C9F4F821BF4
:1003B00091098F739927089588E191E00E94D001F7
:1003C00021E0892B09F420E0822F089580E090E05D
:1003D000892B29F00E94DC0181110C940000089502
:1003E000FC01A48DA80FB92FB11DA35ABF4F2C91AA
:1003F000848D90E001968F739927848FA689B789A1
:100400002C93A089B1898C91837080648C93938D97
:10041000848D981306C00288F389E02D80818F7D3A
:1004200080830895EF92FF920F931F93CF93DF93F2
:10043000EC0181E0888F9B8D8C8D98131AC0E88920
:10044000F989808185FF15C09FB7F894EE89FF89EF
:100450006083E889F98980818370806480839FBF8D
:1004600081E090E0DF91CF911F910F91FF90EF908D
:100470000895F62E0B8D10E00F5F1F4F0F7311279D
:10048000E02E8C8D8E110CC00FB607FCFACFE889D8
:10049000F989808185FFF5CFCE010E94F001F1CF6F
:1004A000EB8DEC0FFD2FF11DE35AFF4FF0829FB74C
:1004B000F8940B8FEA89FB8980818062CFCFCF933C
:1004C000DF93EC01888D8823B9F0AA89BB89E8897C
:1004D000F9898C9185FD03C0808186FD0DC00FB622
:1004E00007FCF7CF8C9185FFF2CF808185FFEDCFA0
:1004F000CE010E94F001E9CFDF91CF910895CF9313
:10050000DF93E0EBF0E08491ECE9F0E0D491E8E8EF
:10051000F0E0C491CC2321F181110E948C00EC2FDA
:10052000F0E0EE0FFF1FE859FF4FA591B491EC9159
:10053000ED2331E020E009F430E0832F922F9093F7
:10054000170180931601809116019091170161E0C7
:10055000892B09F460E081E1DF91CF910C94B50023
:1005600090E080E0ECCF1F920F920FB60F92112413
:100570002F933F938F939F93AF93BF938091C0012D
:100580009091C101A091C201B091C3013091BF010E
:1005900023E0230F2D3758F50196A11DB11D20939F
:1005A000BF018093C0019093C101A093C201B09399
:1005B000C3018091BB019091BC01A091BD01B0919C
:1005C000BE010196A11DB11D8093BB019093BC019A
:1005D000A093BD01B093BE01BF91AF919F918F9148
:1005E0003F912F910F900FBE0F901F90189526E806
:1005F000230F0296A11DB11DD2CF1F920F920FB6ED
:100600000F9211242F933F934F935F936F937F9398
:100610008F939F93AF93BF93EF93FF93E09102016A
:10062000F09103010995FF91EF91BF91AF919F91D7
:100630008F917F916F915F914F913F912F910F908B
:100640000FBE0F901F9018951F920F920FB60F922A
:1006500011242F933F934F935F936F937F938F93C7
:100660009F93AF93BF93EF93FF93E0910001F091BD
:1006700001010995FF91EF91BF91AF919F918F91EA
:100680007F916F915F914F913F912F910F900FBE8E
:100690000F901F9018951F920F920FB60F92112472
:1006A0002F933F934F935F936F937F938F939F937A
:1006B000AF93BF93EF93FF9388E191E00E94F00125
:1006C000FF91EF91BF91AF919F918F917F916F912A
:1006D0005F914F913F912F910F900FBE0F901F9000
:1006E00018951F920F920FB60F9211242F938F938C
:1006F0009F93EF93FF93E0912801F091290180816E
:10070000E0912E01F0912F0182FD1BC0908180911C
:1007100031018F5F8F7320913201821741F0E09198
:100720003101F0E0E85EFE4F958F80933101FF913B
:10073000EF919F918F912F910F900FBE0F901F906F
:1007400018958081F4CFCF92DF92EF92FF920F93B2
:100750001F93E82FF92F05C0015011092109310914
:1007600061F1908196239417B9F305C001501109E6
:100770002109310911F1908196239413F7CFC12CEF
:10078000D12CE12CF12C0AC08FEFC81AD80AE80A44
:10079000F80A0C151D052E053F0579F0808186238A
:1007A000841791F36C2D7D2D8E2D9F2D1F910F9110
:1007B000FF90EF90DF90CF90089560E070E080E0D0
:1007C00090E01F910F91FF90EF90DF90CF900895F0
:1007D000789484B5826084BD84B5816084BD85B51C
:1007E000826085BD85B5816085BD80916E00816028
:1007F00080936E00109281008091810082608093CE
:1008000081008091810081608093810080918000CF
:100810008160809380008091B10084608093B100FA
:100820008091B00081608093B00080917A008460F4
:1008300080937A0080917A00826080937A00809120
:100840007A00816080937A0080917A00806880933A
:100850007A001092C100E0912801F091290182E014
:100860008083E0912401F09125011082E09126011E
:10087000F09127018FEC808310923001E0912C01E0
:10088000F0912D0186E08083E0912A01F0912B0107
:10089000808180618083E0912A01F0912B01808129
:1008A00088608083E0912A01F0912B01808180682B
:1008B0008083E0912A01F0912B0180818F7D8083DC
:1008C00061E08BE00E94E30061E08DE00E94E300C4
:1008D00061E08CE00E94E30061E08AE00E94E300B6
:1008E00061E089E00E94E30061E088E00E94E300AB
:1008F00061E081E10E94E3008FE792E090930101C3
:1009000080930001809169008C7F816080936900F1
:10091000E89AC3E0D0E023E2E22EF12C38EAC32EBD
:1009200030E0D32E44E9A42E40E0B42E50E0852ED2
:1009300050E0952E60E081E10E94B50061E08EE01C
:100940000E94E30060E08EE00E94B500CE010197B6
:10095000F1F761E08EE00E94B500C7010197F1F761
:1009600060E08EE00E94B50060E08EE00E94E3004F
:10097000F6016491F5018491E82FF0E0EE0FFF1F7E
:10098000E859FF4F8591949100E412E42FE030E0A4
:10099000462F0E94A303611571058105910529F079
:1009A0006F5F7F4F8F4F9F4F9F700E94A0062EE971
:1009B0003CE04EE05DE30E94550720E030E040E07F
:1009C0005FE30E9455072B013C0120E030E0A901C4
:1009D0000E94F10587FD5BC020E030E048EC53E465
:1009E000C301B2010E94500718160CF454C0409283
:1009F000B7015092B8016092B9017092BA0161E0FA
:100A00008DE00E94B50060E08CE00E94B50061E0DE
:100A100089E00E94B50060E088E00E94B50020E017
:100A200030E040E251E4C301B2010E94840520E0BD
:100A300030E048EC53E40E94F60520E030E04FE758
:100A400053E40E9455070E94680677FD2BC07093FF
:100A5000B6016093B5016090B5017090B601B30125
:100A60008BE00E941401B3018AE00E94140160E04F
:100A700081E10E94B5008114910409F45BCF0E94CA
:100A8000DC01882309F456CF0E94000053CF412C8B
:100A9000512C3201ACCF412C512C88EC682E83E4D0
:100AA000782EA5CF1092B6011092B501D4CFE8E10F
:100AB000F1E01382128288EE93E0A0E0B0E084833C
:100AC0009583A683B78388E091E09183808385EC4A
:100AD00090E09587848784EC90E09787868780EC08
:100AE00090E0918B808B81EC90E0938B828B82ECF9
:100AF00090E0958B848B86EC90E0978B868B118EA3
:100B0000128E138E148E08955058BB27AA270E9468
:100B10009C050C9416070E94080738F00E940F07E6
:100B200020F039F49F3F19F426F40C9405070EF4D5
:100B3000E095E7FB0C94FF06E92F0E94270758F386
:100B4000BA17620773078407950720F079F4A6F5B2
:100B50000C9449070EF4E0950B2EBA2FA02D0B0133
:100B6000B90190010C01CA01A0011124FF27591BF2
:100B700099F0593F50F4503E68F11A16F040A22FF8
:100B8000232F342F4427585FF3CF46953795279569
:100B9000A795F0405395C9F77EF41F16BA0B620B68
:100BA000730B840BBAF09150A1F0FF0FBB1F661FAF
:100BB000771F881FC2F70EC0BA0F621F731F841FF2
:100BC00048F4879577956795B795F7959E3F08F018
:100BD000B0CF9395880F08F09927EE0F97958795DA
:100BE00008950E94DB0608F481E008950E940A0639
:100BF0000C9416070E940F0758F00E94080740F057
:100C000029F45F3F29F00C94FF0651110C944A0718
:100C10000C9405070E94270768F39923B1F3552325
:100C200091F3951B550BBB27AA27621773078407FF
:100C300038F09F5F5F4F220F331F441FAA1FA9F395
:100C400035D00E2E3AF0E0E832D091505040E69583
:100C5000001CCAF72BD0FE2F29D0660F771F881FE4
:100C6000BB1F261737074807AB07B0E809F0BB0BD7
:100C7000802DBF01FF2793585F4F3AF09E3F5105EB
:100C800078F00C94FF060C944A075F3FE4F3983E1B
:100C9000D4F3869577956795B795F7959F5FC9F7D4
:100CA000880F911D9695879597F90895E1E0660F55
:100CB000771F881FBB1F621773078407BA0720F0CE
:100CC000621B730B840BBA0BEE1F88F7E095089537
:100CD0000E946F066894B1110C944A0708950E940F
:100CE0002F0788F09F5798F0B92F9927B751B0F088
:100CF000E1F0660F771F881F991F1AF0BA95C9F7A0
:100D000014C0B13091F00E944907B1E008950C94ED
:100D10004907672F782F8827B85F39F0B93FCCF3A0
:100D2000869577956795B395D9F73EF4909580951C
:100D3000709561957F4F8F4F9F4F0895E89409C03C
:100D400097FB3EF490958095709561957F4F8F4FFE
:100D50009F4F9923A9F0F92F96E9BB279395F69514
:100D6000879577956795B795F111F8CFFAF4BB0F92
:100D700011F460FF1BC06F5F7F4F8F4F9F4F16C0F6
:100D8000882311F096E911C0772321F09EE8872F80
:100D9000762F05C0662371F096E8862F70E060E03C
:100DA0002AF09A95660F771F881FDAF7880F9695B5
:100DB000879597F90895990F0008550FAA0BE0E859
:100DC000FEEF16161706E807F907C0F0121613060D
:100DD000E407F50798F0621B730B840B950B39F44D
:100DE0000A2661F0232B242B252B21F408950A26B3
:100DF00009F4A140A6958FEF811D811D089597F9F3
:100E00009F6780E870E060E008959FEF80EC0895B0
:100E100000240A94161617061806090608950024D9
:100E20000A9412161306140605060895092E039453
:100E3000000C11F4882352F0BB0F40F4BF2B11F4C7
:100E400060FF04C06F5F7F4F8F4F9F4F089557FD26
:100E50009058440F551F59F05F3F71F04795880F28
:100E600097FB991F61F09F3F79F0879508951216BF
:100E700013061406551FF2CF4695F1DF08C016166B
:100E800017061806991FF1CF86957105610508941C
:100E90000895E894BB2766277727CB0197F9089533
:100EA0000E94DB0608F48FEF08950E9468070C94F7
:100EB00016070E94080738F00E940F0720F09523BC
:100EC00011F00C94FF060C94050711240C944A07AA
:100ED0000E94270770F3959FC1F3950F50E0551FAF
:100EE000629FF001729FBB27F00DB11D639FAA277F
:100EF000F00DB11DAA1F649F6627B00DA11D661FCE
:100F0000829F2227B00DA11D621F739FB00DA11DEE
:100F1000621F839FA00D611D221F749F3327A00DA8
:100F2000611D231F849F600D211D822F762F6A2F44
:100F300011249F5750409AF0F1F088234AF0EE0FA9
:100F4000FF1FBB1F661F771F881F91505040A9F7D6
:100F50009E3F510580F00C94FF060C944A075F3FBA
:100F6000E4F3983ED4F3869577956795B795F79512
:100F7000E7959F5FC1F7FE2B880F911D969587958A
:100F800097F90895EE0FFF1F0590F491E02D099455
:040F9000F894FFCF03
:100F94007101710100000000120272019F015F02E1
:060FA400D001AE01C20104
:00000001FF
