:100000000C945E000C9486000C9486000C94860080
:100010000C9486000C9486000C9486000C94860048
:100020000C9486000C9486000C9486000C94860038
:100030000C9486000C9486000C9486000C94860028
:100040000C94BF030C9486000C942F040C940904A8
:100050000C9486000C9486000C9486000C94860008
:100060000C9486000C948600000000080002010039
:100070000003040700000000000000000000000072
:10008000250028002B0000000000240027002A0083
:10009000040404040404040402020202020203032E
:1000A0000303030301020408102040800102040836
:1000B00010200102040810206104280711241FBE2B
:1000C000CFEFD8E0DEBFCDBF22E0AEE5B1E001C0AA
:1000D0001D92AF30B207E1F711E0A0E0B1E0E0E03F
:1000E000F4E102C005900D92AE35B107D9F710E0EA
:1000F000CDE5D0E004C02197FE010E94CD07CC35AC
:10010000D107C9F70E949A040C94F3090C940000DB
:1001100090E0FC01EC55FF4F249180579F4FFC016C
:100120008491882399F090E0880F991FFC01EA5789
:10013000FF4FA591B491FC01E458FF4F8591949134
:100140008FB7F894EC91E22BEC938FBF089590E079
:10015000FC01E859FF4F2491FC01EC55FF4F34910D
:10016000FC01E057FF4FE491EE23C9F0222339F060
:10017000233001F1A8F4213019F1223029F1F0E007
:10018000EE0FFF1FE458FF4FA591B4918FB7F8947D
:10019000EC91611126C030953E233C938FBF0895AA
:1001A0002730A9F02830C9F0243049F78091800029
:1001B0008F7D03C0809180008F7780938000DFCF98
:1001C00084B58F7784BDDBCF84B58F7DFBCF8091E5
:1001D000B0008F778093B000D2CF8091B0008F7D38
:1001E000F9CF3E2BDACF1F93CF93DF93182FEB017C
:1001F0000E948800209739F460E0812FDF91CF9131
:100200001F910C94A700CF3FD10511F461E0F5CF09
:10021000E12FF0E0E859FF4FE491E33031F140F491
:10022000E130B1F0E230E1F0C038D1057CF7E4CF45
:10023000E73029F1E83059F1E430B1F780918000DE
:10024000806280938000D0938B00C0938A0004C0AA
:1002500084B5806884BDC7BDDF91CF911F9108959B
:1002600084B5806284BDC8BDF7CF8091800080686E
:1002700080938000D0938900C0938800EDCF809157
:10028000B00080688093B000C093B300E5CF809148
:10029000B00080628093B000C093B400DDCFAF9215
:1002A000BF92CF92DF92EF92FF920F931F93CF9363
:1002B000DF936C017B018B01040F151FEB015E01C5
:1002C000AE18BF08C017D10759F06991D601ED915A
:1002D000FC910190F081E02DC6010995892B79F7F9
:1002E000C501DF91CF911F910F91FF90EF90DF90AB
:1002F000CF90BF90AF900895FC01538D448D252F72
:1003000030E0842F90E0821B930B541710F0CF96AF
:10031000089501970895FC01918D828D981761F0E1
:10032000A28DAE0FBF2FB11D5D968C91928D9F5FF8
:100330009F73928F90E008958FEF9FEF0895FC01D7
:10034000918D828D981731F0828DE80FF11D858D8A
:1003500090E008958FEF9FEF0895FC01918D228D1D
:10036000892F90E0805C9F4F821B91098F739927A2
:10037000089588E691E00E94AD0121E0892B09F4FF
:1003800020E0822F089580E090E0892B29F00E94E0
:10039000B90181110C9400000895FC01A48DA80FEF
:1003A000B92FB11DA35ABF4F2C91848D90E00196B7
:1003B0008F739927848FA689B7892C93A089B189D7
:1003C0008C91837080648C93938D848D981306C078
:1003D0000288F389E02D80818F7D80830895EF92DC
:1003E000FF920F931F93CF93DF93EC0181E0888FEF
:1003F0009B8D8C8D98131AC0E889F989808185FFBF
:1004000015C09FB7F894EE89FF896083E889F98960
:1004100080818370806480839FBF81E090E0DF9162
:10042000CF911F910F91FF90EF900895F62E0B8DB5
:1004300010E00F5F1F4F0F731127E02E8C8D8E1170
:100440000CC00FB607FCFACFE889F989808185FFD7
:10045000F5CFCE010E94CD01F1CFEB8DEC0FFD2F3A
:10046000F11DE35AFF4FF0829FB7F8940B8FEA8992
:10047000FB8980818062CFCFCF93DF93EC01888DA1
:100480008823B9F0AA89BB89E889F9898C9185FD0F
:1004900003C0808186FD0DC00FB607FCF7CF8C919D
:1004A00085FFF2CF808185FFEDCFCE010E94CD0187
:1004B000E9CFDF91CF91089560E08DE00E94A70021
:1004C00060E08CE00E94A70070E060E08BE00E949A
:1004D000F30060E089E00E94A70060E088E00E94ED
:1004E000A70070E060E08AE00C94F300FC0101904A
:1004F0000020E9F73197AF01481B590BBC0188E692
:1005000091E00C944F01FC0180819181009711F0E2
:100510000C946F080895AF92BF92CF92DF92EF9242
:10052000FF920F931F93CF93DF93DC01CD90DC906C
:100530001197C114D10439F01496CD91DC918C013E
:100540007601209761F4DF91CF911F910F91FF9079
:10055000EF90DF90CF90BF90AF9008957501570155
:10056000BFEFAB1ABB0AF7018081082E000C990B74
:100570000E946807892B91F72197CC0DDD1D88819A
:10058000082E000C990B0E946807892B29F0CE15C4
:10059000DF0510F02197F3CFAE014F5F5F4F4E198B
:1005A0005F09D80115965C934E931497CE14DF041F
:1005B00020F4B701C6010E94B509D801ED91FC9164
:1005C000119714968D919C91E80FF91F1082BBCF63
:1005D000FC0124813581232B39F421E0FB0180814A
:1005E000882349F020E007C0808191810E94C909D9
:1005F00021E0892BB9F7822F08950F931F93CF9392
:10060000DF93EC0188819981009759F02A813B8121
:100610002617370730F081E0DF91CF911F910F91BE
:1006200008958B016F5F7F4F0E94F808009759F083
:10063000998388831B830A832C813D81232B59F75F
:10064000FC011082E8CF80E0E7CFEF92FF920F939A
:100650001F93CF93DF93EC017B018A01BA010E94C3
:10066000FD0228813981811114C02115310519F04D
:10067000C9010E946F08198218821D821C821B8288
:100680001A82CE01DF91CF911F910F91FF90EF90D1
:1006900008951D830C83B701C9010E94D209F1CFCF
:1006A000FB0101900020E9F73197AF01461B570B82
:1006B0000C942503AF92BF92CF92DF92EF92FF92FC
:1006C0000F931F93CF93DF93EC016B015A017901D4
:1006D0002417350720F48B2D5901E42EF82E1982AA
:1006E00018821B821A821D821C8265E271E0CE0193
:1006F0000E945003D60114960D911C91A016B106CC
:1007000028F5E016F10608F48701D601ED91FC9179
:100710001197E00FF11FF08010826D917C916A0DAE
:100720007B1D61157105F1F0FB0101900020E9F7D7
:100730003197AF01461B570BCE010E942503F601EE
:1007400080819181080F191FD801FC92CE01DF91A1
:10075000CF911F910F91FF90EF90DF90CF90BF90BE
:10076000AF90089588819981009711F00E946F08D9
:10077000198218821D821C821B821A82E0CF1F926E
:100780000F920FB60F9211242F933F938F939F9345
:10079000AF93BF938091640190916501A091660130
:1007A000B09167013091630123E0230F2D3758F595
:1007B0000196A11DB11D2093630180936401909364
:1007C0006501A0936601B093670180915F019091EC
:1007D0006001A0916101B09162010196A11DB11D5E
:1007E00080935F0190936001A0936101B0936201D7
:1007F000BF91AF919F918F913F912F910F900FBE1D
:100800000F901F90189526E8230F0296A11DB11D89
:10081000D2CF1F920F920FB60F9211242F933F93B6
:100820004F935F936F937F938F939F93AF93BF93F8
:10083000EF93FF9388E691E00E94CD01FF91EF9145
:10084000BF91AF919F918F917F916F915F914F91E8
:100850003F912F910F900FBE0F901F9018951F92F0
:100860000F920FB60F9211242F938F939F93EF93B4
:10087000FF93E0917801F09179018081E0917E0110
:10088000F0917F0182FD1BC09081809181018F5F7B
:100890008F7320918201821741F0E0918101F0E095
:1008A000E859FE4F958F80938101FF91EF919F91C1
:1008B0008F912F910F900FBE0F901F9018958081F0
:1008C000F4CFE8E6F1E01382128288EE93E0A0E034
:1008D000B0E084839583A683B7838AE091E0918317
:1008E000808385EC90E09587848784EC90E09787FF
:1008F000868780EC90E0918B808B81EC90E0938BED
:10090000828B82EC90E0958B848B86EC90E0978BC9
:10091000868B118E128E138E148EE5E0F2E011821A
:100920001082138212821582148265E271E0CF0177
:100930000C945003CF93DF93CDB7DEB7E3970FB698
:10094000F894DEBF0FBECDBF789484B5826084BDBD
:1009500084B5816084BD85B5826085BD85B58160C3
:1009600085BD80916E00816080936E001092810041
:1009700080918100826080938100809181008160FC
:1009800080938100809180008160809380008091BD
:10099000B10084608093B1008091B0008160809349
:1009A000B00080917A00846080937A0080917A0010
:1009B000826080937A0080917A00816080937A00CF
:1009C00080917A00806880937A001092C100E09153
:1009D0007801F091790182E08083E0917401F091D7
:1009E00075011082E0917601F09177018FEC8083A0
:1009F00010928001E0917C01F0917D0186E080837E
:100A0000E0917A01F0917B01808180618083E091A7
:100A10007A01F0917B01808188608083E0917A0186
:100A2000F0917B01808180688083E0917A01F09170
:100A30007B0180818F7D80838DE00E9488008CE027
:100A40000E9488008BE00E94880089E00E94880054
:100A500088E00E9488008AE00E9488000E945C0270
:100A60008AE0482E512C612C712C88E691E00E947E
:100A7000AD01892B09F4DFC188E691E00E948B016A
:100A80008C3361F450E040E065E271E085E092E093
:100A90000E94250381E080935E01E7CF90915E0183
:100AA0008E3309F0A1C1992301F310925E0185E014
:100AB00092E00E948B0288E191E00E9476024091D0
:100AC000090250910A02609105027091060288E6BF
:100AD00091E00E944F0183E291E00E9476021FA6FE
:100AE0001EA619AA18AA1BAA1AAA6091050270913B
:100AF00006026115710541F04091090250910A0208
:100B0000CE018E960E9425031A8219821C821B82B6
:100B10001E821D8266E271E0CE0101960E945003A2
:100B20008AA99BA92D813E817C01E21AF30A211535
:100B3000310541F1009731F18217930718F1E8165A
:100B4000F90620F07C0121E0E21AF108CEA4DFA42E
:100B5000A980BA80C6010FEF1FEF46018E0C9F1CC3
:100B60008816990688F0B5010E94D909009761F0AE
:100B70009C012C193D09E216F30608F49801019630
:100B80008901EECF0FEF1FEFCE0101960E94830285
:100B90008AA99BA908171907A8F4CEA4DFA46CE2C0
:100BA00070E0C601800F911F0E94BE09009751F0AE
:100BB0007C01EC18FD080F3F100721F09FEFE916AC
:100BC000F90669F48BE291E00E94760283E291E0FB
:100BD0000E947602CE018E960E94830246CFA80123
:100BE0004C5F5F4F9701BE01625D7F4FCE01019662
:100BF0000E945A0389819A81009709F4A4C00E9437
:100C00002C078B01CE0101960E9483022AA93BA9E1
:100C1000A7014F5F5F4FBE01625D7F4FCE01889697
:100C20000E945A03CE0188960E948B021BA21AA230
:100C30001DA21CA21FA21EA268A579A5611571059F
:100C400031F04CA55DA5CE0182960E94250387E375
:100C500091E00E9476024EA15FA16AA17BA188E685
:100C600091E00E944F0180E491E00E9476026801C9
:100C7000012E000CEE08FF08F7FE69C06DE288E661
:100C800091E00E94EF0122273327A9012C193D0989
:100C90004E095F0919A2FE01B1967F01CA01B9018F
:100CA000A30192010E94AB07605DF70162937F018F
:100CB000211531054105510589F7E114F10419F0B9
:100CC000C7010E94760283E291E00E9476020F3F04
:100CD000110519F014F00FEF10E017FF02C010E03B
:100CE00000E065E471E0CE0182960E94E802811185
:100CF0000E945C026AE471E0CE0182960E94E802E2
:100D00008823D9F161E08DE00E94A70060E08CE0CB
:100D10000E94A700B8018BE00E94F30061E089E027
:100D20000E94A70060E088E00E94A700B8018AE066
:100D30000E94F300CE0182960E948302CE01889623
:100D40000E94830247CF60E070E0CB015ACFA70139
:100D5000960119A2CE0181967C01CA01B901A301B5
:100D600092010E94AB07605DF70162937F0121153C
:100D700031054105510589F7A0CF6EE471E0CE0140
:100D800082960E94E802882391F060E08DE00E9444
:100D9000A70061E08CE00E94A700B8018BE00E94F0
:100DA000F30060E089E00E94A70061E0BCCF63E54A
:100DB00071E0CE0182960E94E802882331F060E063
:100DC0008DE00E94A70061E0A2CF68E571E0CE014E
:100DD00082960E94E802882309F4ACCF61E08DE09E
:100DE0000E94A70060E0D6CF992309F43ECE898304
:100DF0001A820091090210910A020F5F1F4FB80179
:100E000085E092E00E94FD02882309F42ECE209115
:100E10000502309106028091090290910A02BE01FA
:100E20006F5F7F4F820F931F0E94D20910930A02B7
:100E3000009309021ACE80E090E0892B09F415CEC8
:100E40000E94B901882309F410CE0E9400000DCE43
:100E500085E092E00C9483021F93FC019927882778
:100E6000BC01E89411911032E9F3193010F01E30F2
:100E7000C8F31B3251F01D3249F4689406C00E9439
:100E80005307610F711D811D911D119110531A306F
:100E9000B0F33EF490958095709561957F4F8F4F9C
:100EA0009F4F1F910895592F482F372F262F660FD8
:100EB000771F881F991F660F771F881F991F620F62
:100EC000731F841F951F660F771F881F991F089532
:100ED00091110C947107803219F089508550C8F730
:100EE00008959927882708952F923F924F925F92F5
:100EF0006F927F928F929F92AF92BF92CF92DF922A
:100F0000EF92FF920F931F93CF93DF93CDB7DEB78E
:100F1000CA1BDB0B0FB6F894DEBF0FBECDBF099422
:100F20002A88398848885F846E847D848C849B8479
:100F3000AA84B984C884DF80EE80FD800C811B8187
:100F4000AA81B981CE0FD11D0FB6F894DEBF0FBEB6
:100F5000CDBFED010895A1E21A2EAA1BBB1BFD0116
:100F60000DC0AA1FBB1FEE1FFF1FA217B307E40788
:100F7000F50720F0A21BB30BE40BF50B661F771FE0
:100F8000881F991F1A9469F76095709580959095C0
:100F90009B01AC01BD01CF010895EE0FFF1F05902D
:100FA000F491E02D09940F931F93CF93DF93823038
:100FB000910510F482E090E0E0910D02F0910E02B4
:100FC00030E020E0B0E0A0E0309799F42115310541
:100FD00009F44AC0281B390B24303105D8F58A8121
:100FE0009B816115710589F1FB0193838283FE0169
:100FF00011C0408151810281138148175907E0F0E7
:101000004817590799F4109761F012960C931297AC
:1010100013961C933296CF01DF91CF911F910F91C0
:10102000089500930D0210930E02F4CF211531059F
:1010300051F04217530738F0A901DB019A01BD01B5
:10104000DF01F801C1CFEF01F9CF90930E02809339
:101050000D02CDCFFE01E20FF31F81939193225039
:10106000310939832883D7CF20910B0230910C02AC
:10107000232B41F4209102013091030130930C02A3
:1010800020930B02209100013091010121153105BF
:1010900041F42DB73EB74091040150910501241B46
:1010A000350BE0910B02F0910C02E217F307A0F46C
:1010B0002E1B3F0B2817390778F0AC014E5F5F4FAE
:1010C0002417350748F04E0F5F1F50930C024093D2
:1010D0000B02819391939FCFF0E0E0E09CCFCF9300
:1010E000DF930097E9F0FC01329713821282A091FE
:1010F0000D02B0910E02ED0130E020E01097A1F456
:1011000020813181820F931F20910B0230910C02BC
:101110002817390709F061C0F0930C02E0930B0225
:10112000DF91CF910895EA01CE17DF07E8F54A81F4
:101130005B819E0141155105B1F7E901FB83EA830B
:1011400049915991C40FD51FEC17FD0761F48081B7
:1011500091810296840F951FE9019983888382818A
:1011600093819B838A83F0E0E0E012968D919C91BD
:1011700013970097B9F52D913C911197CD010296E7
:10118000820F931F20910B0230910C022817390710
:1011900039F6309751F510920E0210920D02B0936D
:1011A0000C02A0930B02BCCFD383C2834081518138
:1011B000840F951FC817D90761F44E5F5F4F888170
:1011C0009981480F591F518340838A819B81938362
:1011D00082832115310509F0B0CFF0930E02E09320
:1011E0000D029ECFFD01DC01C0CF13821282D7CF4A
:1011F000B0E0A0E0EEEFF8E00C9476078C010097E9
:1012000051F4CB010E94D3078C01C801CDB7DEB7E2
:10121000E0E10C949207FC01E60FF71F9C012250BD
:101220003109E217F30708F49DC0D901CD91DC9193
:101230001197C617D70798F0C530D10530F3CE0106
:1012400004978617970708F3C61BD70B2297C193FD
:10125000D1936D937C93CF010E946F08D6CF5B0131
:10126000AC1ABD0A4C018C0E9D1EA0910D02B091CE
:101270000E02512C412CF12CE12C109731F580916C
:101280000B0290910C028815990509F05CC0461676
:10129000570608F058C08091000190910101009715
:1012A00041F48DB79EB74091040150910501841B14
:1012B000950BE817F90708F055C0F0930C02E0937E
:1012C0000B02F90171836083A0CF8D919C911197DE
:1012D00012966C90129713967C901397A815B905E7
:1012E00059F56C0142E0C40ED11CCA14DB0420F194
:1012F000AC014A195B09DA011296159780F06282F7
:10130000738251834083D9016D937C93E114F1047E
:1013100071F0D7011396FC93EE93129776CF229635
:101320008C0F9D1FF90191838083F301EFCFF09320
:101330000E02E0930D0269CF4816590608F42C01FD
:101340007D01D3019ACFCB010E94D3077C01009786
:1013500049F0AE01B8010E94B509C8010E946F08AA
:10136000870153CF10E000E050CFFB01DC0102C049
:1013700001900D9241505040D8F70895FC018191A1
:10138000861721F08823D9F7992708953197CF013F
:101390000895FB01DC018D91019080190110D9F3B2
:1013A000990B0895FB01DC0101900D920020E1F7FB
:1013B0000895FB0151915523A9F0BF01DC014D9126
:1013C00045174111E1F759F4CD010190002049F092
:1013D0004D9140154111C9F3FB014111EFCF81E05F
:1013E00090E00197089510E0CDE5D0E004C0FE0143
:1013F0000E94CD072196CE35D107C9F7F894FFCFCB
:1014000000000F02800000000000EF014F017C018E
:101410003C02AD018B019F0152656365697665648D
:101420003A20000D0A005350443A00496E76616C30
:10143000696420434D440052756E6E696E672000EA
:10144000206174200053544F5000465744004241DD
:0E145000434B004C4546540052494748540057
:00000001FF
