:100000000C9463000C948B000C948B000C948B006C
:100010000C948B000C948B000C948B000C948B0034
:100020000C948B000C948B000C948B000C948B0024
:100030000C948B000C948B000C948B000C948B0014
:100040000C94240B0C948B000C94940B0C946E0B5E
:100050000C948B000C948B000C948B000C948B00F4
:100060000C94C60B0C948B000000000024002700A9
:100070002A0000000000250028002B0000000000DE
:1000800023002600290004040404040404040202DA
:100090000202020203030303030301020408102007
:1000A0004080010204081020010204081020000012
:1000B0000008000201000003040700000000000027
:1000C0000000E50C301311241FBECFEFD8E0DEBFD7
:1000D000CDBF27E0A0E9B2E001C01D92A533B20771
:1000E000E1F712E0A0E0B1E0E2EDF0E302C005903C
:1000F0000D92A039B107D9F710E0C2E6D0E004C0F4
:100100002197FE010E944116C136D107C9F70E940E
:100110009F0D0C945C180C94000096E0899FD00110
:100120001124AA54B94F90967C936E935F9791E0F7
:1001300091969C939197E0912307F09124079091D9
:100140002207992339F0309751F0811108C080912E
:10015000D2060994309719F05C968C91FACF0895E5
:10016000833081F028F4813099F08230A9F008952D
:100170008730A9F08830C9F08430B1F480918000D4
:100180008F7D03C0809180008F77809380000895D9
:1001900084B58F7784BD089584B58F7DFBCF809122
:1001A000B0008F778093B00008958091B0008F7D6C
:1001B000F9CFCF93DF93282F30E0F901E255FF4FBD
:1001C0008491F901E656FF4FD491F901EA57FF4FA8
:1001D000C491CC23A1F081110E94B000EC2FF0E07B
:1001E000EE0FFF1FE458FF4FA591B491EC91ED2362
:1001F00081E090E009F480E0DF91CF91089580E004
:1002000090E0FACF862F0C94D9001F93CF93DF9301
:10021000282F30E0F901E255FF4F8491F901E656AD
:10022000FF4FD491F901EA57FF4FC491CC23A9F0B5
:10023000162F81110E94B000EC2FF0E0EE0FFF1F8F
:10024000EE58FF4FA591B4918FB7F894EC9111112E
:1002500008C0D095DE23DC938FBFDF91CF911F9133
:100260000895DE2BF8CF862F642F0C940501CF93D1
:10027000DF9390E0FC01E656FF4F24918A579F4F91
:10028000FC0184918823C9F090E0880F991FFC013C
:10029000E859FF4FA591B491FC01EE58FF4FC5916D
:1002A000D49161110DC09FB7F8948C912095822351
:1002B0008C938881282328839FBFDF91CF91089555
:1002C000623051F49FB7F8943C91822F809583233C
:1002D0008C93E8812E2BEFCF8FB7F894EC912E2BD7
:1002E0002C938FBFEACF862F642F0C9437013FB732
:1002F000F8948091030690910406A0910506B091B0
:10030000060626B5A89B05C02F3F19F00196A11D32
:10031000B11D3FBFBA2FA92F982F8827BC01CD014F
:10032000620F711D811D911D42E0660F771F881FAE
:10033000991F4A95D1F708958F929F92AF92BF92DD
:10034000CF92DF92EF92FF924B015C010E94770106
:100350006B017C010E9477016C197D098E099F0950
:10036000683E734081059105A8F321E0821A910847
:10037000A108B10888EEC80E83E0D81EE11CF11C6C
:1003800081149104A104B10429F7FF90EF90DF904C
:10039000CF90BF90AF909F908F9008952FB7F89413
:1003A0006091FF0570910006809101069091020610
:1003B0002FBF08950F931F93CF93DF93C82FD62F8E
:1003C00086E0C89FF0011124EA54F94F11A2878DED
:1003D00090A181309105F1F058F082309105F1F152
:1003E000039709F440C0DF91CF911F910F910895B9
:1003F0006623C9F361E070E08C2F0E948D000E949B
:10040000CE0160930E0770930F07809310079093AF
:100410001107E9CF0E94CE0100910E0710910F073E
:100420002091100730911107AB01BC01401B510B0B
:10043000620B730B8091200790912107B0E0A0E040
:1004400084179507A607B70748F462E070E08C2F81
:10045000DF91CF911F910F910C948D0063E070E0BC
:10046000D111C1CFF4CF70E060E0F1CF6F927F92F5
:100470008F929F92AF92BF92CF92DF92EF92FF92B4
:100480000F931F93CF93DF9381E0809322070E9405
:10049000CE0100911207109113072091140730919B
:1004A0001507AB01BC01401B510B620B730B809114
:1004B0001E0790911F07B0E0A0E084179507A607DC
:1004C000B70708F014C1C0E080911C07C81760F49A
:1004D000E0911807F0911907EC0FF11D62E080819F
:1004E0000E943701CF5FF0CF712C812C912C5401E9
:1004F000839480911D07781608F05FC0072D10E0E7
:10050000E0911A07F0911B07E00FF11F61E0808175
:100510000E943701E0911A07F0911B07E00FF11FCD
:1005200060E080810E940501D501C401072C04C050
:10053000880F991FAA1FBB1F0A94D2F76C017C0178
:10054000E094F094612C80911C076816F8F4C62D95
:10055000D0E0E0911807F0911907EC0FFD1F8081A2
:100560000E94D9002496CC0FDD1FCA54D94F892B85
:1005700041F4888199818C299D299983888363948A
:10058000E2CF888199818E219F21F7CFE0911A07D0
:10059000F0911B07E00FF11F61E080810E940501CF
:1005A00080911A0790911B07080F191F60E0F8014E
:1005B00080810E94370173949CCFC6EBD6E0FE0188
:1005C0008FEF9FEF278D30A1232B21F4148E968F70
:1005D000858F11A2369626E0E23FF20799F7F12CBB
:1005E00096E0D92E80911C07F81608F050C0E12C37
:1005F0000F2D10E0000F111F0254194F20911D07FD
:10060000E21608F042C0F801608171810E2C02C030
:10061000769567950A94E2F7F29E900111242E0DCB
:10062000311DE6EBF6E080E0458D568D2417350749
:1006300009F461C08F5F36968A30B1F760FF23C03E
:10064000E6EBF6E090E080E0448D411117C0E091C8
:100650001607F0911707E20FF31F4081D89EF001B3
:10066000D99EF00D1124EA54F94F448F368F258F0F
:1006700010A2178E61E00E94DA0105C0019636963D
:100680008A30910509F7E394B9CFF394ABCF10E02A
:1006900089A18111182F2696F6E0C23FDF07C1F726
:1006A0000E94CE0160931207709313078093140782
:1006B000909315071123D9F08091D7068823B9F0BC
:1006C0008091D5069091D606019789F48091D20643
:1006D000DF91CF911F910F91FF90EF90DF90CF901E
:1006E000BF90AF909F908F907F906F9008951092E1
:1006F000220780E0EDCF6170BECF08950895DB0141
:1007000014964D915C9115976D917C91DC01ED9162
:10071000FC910280F381E02D0994AF92BF92CF92B9
:10072000DF92EF92FF920F931F93CF93DF936C01B1
:100730007B018B01040F151FEB015E01AE18BF0892
:10074000C017D10759F06991D601ED91FC91019044
:10075000F081E02DC6010995892B79F7C501DF915C
:10076000CF911F910F91FF90EF90DF90CF90BF90AE
:10077000AF900895FC01538D448D252F30E0842FD8
:1007800090E0821B930B541710F0CF9608950197B9
:100790000895FC01918D828D981761F0A28DAE0FA6
:1007A000BF2FB11D5D968C91928D9F5F9F73928F2D
:1007B00090E008958FEF9FEF0895FC01918D828D59
:1007C000981731F0828DE80FF11D858D90E0089526
:1007D0008FEF9FEF0895FC01918D228D892F90E07E
:1007E000805C9F4F821B91098F739927089587E042
:1007F00096E00E94EB0321E0892B09F420E0822F90
:10080000089580E090E0892B29F00E94F703811180
:100810000C9400000895FC01A48DA80FB92FB11D00
:10082000A35ABF4F2C91848D90E001968F73992726
:10083000848FA689B7892C93A089B1898C91837004
:1008400080648C93938D848D981306C00288F389FD
:10085000E02D80818F7D80830895EF92FF920F932A
:100860001F93CF93DF93EC0181E0888F9B8D8C8D5C
:1008700098131AC0E889F989808185FF15C09FB750
:10088000F894EE89FF896083E889F9898081837013
:10089000806480839FBF81E090E0DF91CF911F91C2
:1008A0000F91FF90EF900895F62E0B8D10E00F5FE3
:1008B0001F4F0F731127E02E8C8D8E110CC00FB6B9
:1008C00007FCFACFE889F989808185FFF5CFCE0151
:1008D0000E940B04F1CFEB8DEC0FFD2FF11DE35ABD
:1008E000FF4FF0829FB7F8940B8FEA89FB898081D4
:1008F0008062CFCF682F87E096E00C942D04CF93D1
:10090000DF93EC01888D8823B9F0AA89BB89E88937
:10091000F9898C9185FD03C0808186FD0DC00FB6DD
:1009200007FCF7CF8C9185FFF2CF808185FFEDCF5B
:10093000CE010E940B04E9CFDF91CF910895209161
:10094000F203260F3327331F21323105ECF42091B7
:100950001604FC0190E080E0243069F082E0089504
:10096000A091F2032191AC014E525C4FA40FB52F20
:10097000B11D2C930196861798F38091F203680FAE
:100980006093F20380E0089581E0089510921604C8
:1009900081E0809318041092170461E082E10E94C4
:1009A000050161E083E10E940501E9EBF0E080814F
:1009B0008E7F808380818D7F808388E48093B800E0
:1009C00085E48093BC000895CF93DF9391E09093EA
:1009D000D1038823B9F0C091B800D091BA008091BA
:1009E000BC008A7B8093BC0060E082E10E9405012C
:1009F00060E083E10E9405010E94C604D093BA0022
:100A0000C093B800DF91CF9108950895E091430419
:100A100080914204E81730F4F0E0E455FC4F808107
:100A200090E008958FEF9FEF089590914304809197
:100A300042042FEF3FEF981748F4E92FF0E0E45518
:100A4000FC4F208130E09F5F90934304C9010895DB
:100A50008091420490914304891B990B0895CF9291
:100A6000DF92EF92FF920F931F93CF93DF937C015E
:100A7000CB018A012091AB03222389F0EB016B01AA
:100A8000C40ED51ECC15DD0569F06991D701ED9135
:100A9000FC910190F081E02DC7010995F3CF642FFF
:100AA0000E949F04C801DF91CF911F910F91FF9089
:100AB000EF90DF90CF900895CF93DF931F92CDB743
:100AC000DEB769832091AB032223F9F02091400423
:100AD000203258F021E030E0FC013383228390E0A3
:100AE00080E00F90DF91CF91089580914104E82F2D
:100AF000F0E0E557FC4F998190838F5F809341042C
:100B00008093400481E090E0ECCF61E0CE0101965B
:100B10000E949F04F7CFCF92DF92EF92FF920F9344
:100B20001F93CF93DF93FC01C48121E02093AB039B
:100B3000C0938A0310924104109240048385682B6D
:100B400084EA96E00E945C05D0914004D13208F01E
:100B500092C00E9477016B017C0180911604811183
:100B600065C082E08093160481E0809318048FEFC3
:100B70008093150410923A04D0933904ABE8B3E0A3
:100B8000E9E1F4E080E0D81385C010923B04809145
:100B90003B04CC0FC82BC0933B04809117048130D9
:100BA00009F07CC0109217040E9477016B017C0150
:100BB00080913B048093BB008091CD039091CE0344
:100BC000A091CF03B091D003892B8A2B8B2B99F066
:100BD0000E9477010091CD031091CE032091CF03A5
:100BE0003091D0036C197D098E099F0906171707EC
:100BF00028073907E0F18091BC0083FDD9CF85EC4F
:100C00008093BC000E9477016B017C0180911604E7
:100C1000823009F445C0809115048F3F61F18091C5
:100C20001504803241F18091150425C08091CD03D7
:100C30009091CE03A091CF03B091D003892B8A2B42
:100C40008B2B09F48ACF0E9477010091CD0310917C
:100C5000CE032091CF033091D0036C197D098E090A
:100C60009F09061717072807390708F076CF8091E4
:100C7000CC030E94E40410924104109240041092AC
:100C8000AB03DF91CF911F910F91FF90EF90DF9019
:100C9000CF9008959D9191938F5F75CF85EEB0CFE2
:100CA0008091CD039091CE03A091CF03B091D0035A
:100CB000892B8A2B8B2B09F4A9CF0E9477010091F5
:100CC000CD031091CE032091CF033091D0036C1946
:100CD0007D098E099F09061717072807390708F0AD
:100CE00095CFC5CF089590E080E008953F924F9250
:100CF0005F926F927F928F929F92AF92BF92CF92AC
:100D0000DF92EF92FF920F931F93CF93DF93CDB7B4
:100D1000DEB7C059D1400FB6F894DEBF0FBECDBFCD
:100D20008090020190900301E0900001F090010199
:100D300085E0889DF001899DF00D1124E55BFB4F56
:100D4000EE0DFF1D808181116CC144275527481984
:100D5000590960E972E0AFE06A2EA7E27A2E0FEF40
:100D60001FEFFB01B0E0A0E0AA24BB24A41AB50A3F
:100D700010821182738262829D012E193F0937FF12
:100D800003C03195219531096A0157FD65012C0D8C
:100D90003D1D3583248317830683118700871196B1
:100DA0003A96A530B10521F76E5C7F4F4F5F5F4FDC
:100DB00023E06A387207A9F6109293021092920209
:100DC00091E0909391027AE0472EE2E35E2EF5E007
:100DD0003F2E30E9C32E32E0D32E4FEF5FEF2FEFDF
:100DE0003FEF6FE3662E62E4762E70E060E0F6017E
:100DF000B0E0A0E01181112379F0108111110CC035
:100E000002811381A480B5800A0D1B1D06151705EC
:100E10001CF4AD019B01380111963A96A530B1053D
:100E200049F76F5F7F4FA2E3CA0ED11C6530710591
:100E3000F1F62F3F320709F45AC08216930609F0E3
:100E40006FC0E416F50609F06BC0BE016F5F7F4FFF
:100E5000DE01A753BF4F90E080E00AE012E34F3F6E
:100E60005407E1F0FB0121933193BF014D935D9352
:100E70000196049FF001059FF00D1124129FA0011F
:100E8000139F500D1124E40FF51FE057FD4F4085CF
:100E90005185268137812F3F320709F79093F70557
:100EA0008093F605A6E6B4E04EE255E0880F991F60
:100EB00002978E3F2FEF9207C9F021E030E02C0F10
:100EC0003D1F280F391FF901208131812D933D935A
:100ED00029EC30E02C0F3D1F280F391FF90120812C
:100EE0003181FA0121933193AF01E2CF81E0C05704
:100EF000DE4F0FB6F894DEBF0FBECDBFDF91CF91AE
:100F00001F910F91FF90EF90DF90CF90BF90AF9027
:100F10009F908F907F906F905F904F903F9008953B
:100F2000449E5001459EB00C1124529EB001539E28
:100F3000700D1124A60EB71EB50160577D4F5B01E1
:100F4000DB019C9311961C9268E0EDE1F1E0DE017B
:100F5000119601900D926A95E1F768E0E5E2F1E003
:100F6000DE01A753BF4F01900D926A95E1F78E0104
:100F70000F5F1F4F712C612CB2E0AB0EB11CF8015A
:100F8000619171918F01620F731F6530710508F0D7
:100F90003FC0E9ECF0E0EC0FFD1FE60DF71DC0804F
:100FA000D180C40ED51EF5E0CF16D10488F5369E4B
:100FB000F001379EF00D1124E55BFB4FEC0DFD1D9C
:100FC000E081E11125C04C9CF0014D9CF00D1124F5
:100FD000569E6001579ED00C1124EC0DFD1DE0576C
:100FE000FD4F6081611114C0D5016D917C916F5FDF
:100FF0007F4FC280D3806C157D0554F47383628368
:1010000037832683518740876181611101C09183B5
:10101000B2E06B0E711CE8E06E16710409F0AFCF00
:10102000D8CE80E064CF0F931F93CF938C01C62F4F
:101030000E948B056C2F6460C8010E948B056C2F89
:101040006B7FC8010E948B0583EC90E00197F1F75C
:10105000CF911F910F9108950F931F93CF93DF931B
:101060008C01D62FC42F607F642B0E94130880E16F
:10107000D89FB00111246C2BC801DF91CF911F9133
:101080000F910C94130840E061E085E297E00E9424
:101090002C088BE39FE10197F1F70895CF93DF933D
:1010A000CDB7DEB728970FB6F894DEBF0FBECDBF21
:1010B00098E0EDE2F1E0DE01119601900D929A9533
:1010C000E1F790912D07961708F46FEF262F30E087
:1010D000220F331F41E050E04C0F5D1F240F351FDE
:1010E000F9016081680F606840E085E297E028962A
:1010F0000FB6F894DEBF0FBECDBFDF91CF910C9439
:101100002C0841E00E942C0881E090E00895809135
:10111000B0069091B106009711F00C94341360E082
:1011200070E0CB010895CF93DF93EC018881998122
:10113000009711F00E94FF16198218821D821C82EE
:101140001B821A82DF91CF910895FC0180819181E9
:10115000009711F00C94FF160895FB0101900020F8
:10116000E9F73197AF01461B570BDC01ED91FC917C
:101170000280F381E02D09948F929F92AF92BF92EB
:101180000F931F93CF93DF93CDB7DEB7A1970FB621
:10119000F894DEBF0FBECDBF19A2423008F44AE07A
:1011A0008E010F5D1F4F842E912CB12CA12CA50117
:1011B00094010E941F16E62FB901CA01EA3004F516
:1011C000E05DD801EE938D01232B242B252B79F79D
:1011D00090E080E0109729F0BD0187E096E00E9442
:1011E000AD08A1960FB6F894DEBF0FBECDBFDF915C
:1011F000CF911F910F91BF90AF909F908F900895C6
:10120000E95CDFCFCF92DF92EF92FF92CF93DF9333
:101210006C01990FEE08FF08F7FE17C08DE20E94DF
:101220007A04EC0166277727CB016C197D098E09BA
:101230009F094AE00E94BC088C0F9D1FDF91CF914F
:10124000FF90EF90DF90CF9008954AE0C701B6017C
:10125000DF91CF91FF90EF90DF90CF900C94BC087E
:101260000C94AD080F931F93CF93DF93EC0188810B
:101270009981009759F02A813B812617370730F072
:1012800081E0DF91CF911F910F9108958B016F5FE6
:101290007F4F0E948817009759F0998388831B839A
:1012A0000A832C813D81232B59F7FC011082E8CF62
:1012B00080E0E7CFEF92FF920F931F93CF93DF93DE
:1012C0006115710541F480E0DF91CF911F910F917D
:1012D000FF90EF90089541155105B1F07B01EC01AD
:1012E0000C811D81040F151FB8010E94320988234B
:1012F00051F3288139818C819D81B701820F931F21
:101300000E9455181D830C8381E0DECFCF93DF93BD
:1013100000D0CDB7DEB789831A8241E050E0BE012C
:101320006F5F7F4F80EB96E00E945A090F900F90FD
:10133000DF91CF910895CF93DF93EC01FB010190F2
:101340000020E9F73197AF01461B570B0E945A095D
:10135000811103C0CE010E949308CE01DF91CF918D
:101360000895CF93DF93EC01FB01448155816081A7
:1013700071810E945A09811103C0CE010E94930815
:10138000CE01DF91CF910895EF92FF920F931F93BB
:10139000CF93DF93EC017B018A01BA010E943209ED
:1013A00081110BC0CE010E949308CE01DF91CF9135
:1013B0001F910F91FF90EF9008951D830C83B7014B
:1013C000888199810E945518F0CFFC01118210820A
:1013D0001382128215821482F6E0803B9F0769F027
:1013E0006091B0067091B1066115710531F04091C0
:1013F000B4065091B5060C94C4090895FB01019000
:101400000020E9F73197AF01461B570B0C94C40934
:101410000F931F93CF93DF93CDB7DEB762970FB6CD
:10142000F894DEBF0FBECDBF8C01CB01F801118255
:10143000108213821282158214824AE0BE016F5F0D
:101440007F4F0E945B13BE016F5F7F4FC8010E94F8
:10145000FE0962960FB6F894DEBF0FBECDBFDF91D6
:10146000CF911F910F910895FC0111821082138278
:10147000128215821482FB0101900020E9F7319756
:10148000AF01461B570B0C94C409CF92DF92EF9229
:10149000FF920F931F93CF93DF93CDB7DEB72C97B7
:1014A0000FB6F894DEBF0FBECDBF8C017B016A0181
:1014B0000E94430860E080E00E944E08B601CE0121
:1014C00007960E94340A6FE671E0CE0101960E94F1
:1014D000340ABE01695F7F4FCE0101960E94B109B7
:1014E000BC0185E297E00E947F03CE0101960E9435
:1014F000A508CE0107960E94A50861E080E00E9441
:101500004E0866E771E085E297E00E94300962E2EA
:1015100072E080EB96E00E94FE09F8018081811163
:101520004CC00E9436028823E9F090ED980F9A3063
:1015300000F50E94860961E087E00E944E08CE0116
:1015400001960E94E50962EA71E0CE0101960E94CF
:101550009B09BC0185E297E00E947F03CE010196C2
:101560000E94A50862E370E080E090E00E949C0188
:10157000D4CF833279F40E948708F70171836083A6
:1015800062E272E080EB96E00E94FE0981E0F801E1
:101590008083E8CF8A3231F762E272E080EB96E036
:1015A0000E94FE0961E087E00E944E0861EA71E056
:1015B00085E297E00E943009D5CF2C960FB6F894BB
:1015C000DEBF0FBECDBFDF91CF911F910F91FF9076
:1015D000EF90DF90CF90089585ED8093BC008091CF
:1015E000CD039091CE03A091CF03B091D003079685
:1015F000A11DB11D23E0B695A795979587952A95CE
:10160000D1F72091BC0024FD03C010921604089568
:101610004091CD035091CE036091CF037091D003E0
:10162000452B462B472B69F30097A105B10541F0E7
:101630002AE22A95F1F700C00197A109B109E1CF8B
:101640008091CC030C94E4041F920F920FB60F927A
:1016500011242F933F938F939F93AF93BF938091C8
:10166000FF0590910006A0910106B091020630910D
:10167000FE0523E0230F2D3758F50196A11DB11D5E
:101680002093FE058093FF0590930006A09301062A
:10169000B09302068091030690910406A09105067E
:1016A000B09106060196A11DB11D8093030690938B
:1016B0000406A0930506B0930606BF91AF919F91D3
:1016C0008F913F912F910F900FBE0F901F90189503
:1016D00026E8230F0296A11DB11DD2CF1F920F92B3
:1016E0000FB60F9211242F933F934F935F936F93F5
:1016F0007F938F939F93AF93BF93EF93FF9387E075
:1017000096E00E940B04FF91EF91BF91AF919F91E2
:101710008F917F916F915F914F913F912F910F909A
:101720000FBE0F901F9018951F920F920FB60F9239
:1017300011242F938F939F93EF93FF93E0911706BC
:10174000F09118068081E0911D06F0911E0682FD41
:101750001BC09081809120068F5F8F73209121069E
:10176000821741F0E0912006F0E0E95FF94F958F94
:1017700080932006FF91EF919F918F912F910F9071
:101780000FBE0F901F9018958081F4CF1F920F927B
:101790000FB60F9211242F933F934F935F936F9344
:1017A0007F938F939F93AF93BF93EF93FF9380911A
:1017B000B900887F803609F44AC0F0F5883209F410
:1017C000A7C018F5803109F49BC0B8F4882309F448
:1017D000F9C0883009F494C0FF91EF91BF91AF91A7
:1017E0009F918F917F916F915F914F913F912F9139
:1017F0000F900FBE0F901F901895883109F488C084
:10180000803251F78093150414C0803409F49DC0D0
:1018100040F48033B9F38833F9F68093150485ECEE
:10182000B0C0803509F485C0883509F496C0883485
:1018300099F60E94EC0AD0CF883909F48CC038F5AB
:10184000883729F050F4883611F0803729F683E084
:10185000809316041092140457C0883809F47BC092
:10186000803919F0803809F0B7CF809114048032A4
:1018700008F071C0E091140481E08E0F809314048D
:101880008091BB00F0E0EC50FC4F80833DC0803B7A
:1018900039F0E0F4803A09F479C0883A09F09CCF35
:1018A00084E0809316041092F3031092F203E09107
:1018B0003E04F0913F0409958091F20381110FC01D
:1018C00081E08093F2031092D20309C0803C09F4B6
:1018D000A6CF883C09F4A3CF883B09F07DCFE091E7
:1018E000F30381E08E0F8093F303F0E0EE52FC4FA0
:1018F00080818093BB009091F3038091F20329C013
:1019000080913B048093BB0085EC8093BC0064CF46
:1019100090913A0480913904981758F5E0913A046F
:1019200081E08E0F80933A04F0E0E75EFB4F808108
:10193000E9CFE0913A0481E08E0F80933A048091E0
:10194000BB00F0E0E75EFB4F808390913A0480910A
:1019500039049817C8F285E8D8CFE0913A0481E0BD
:101960008E0F80933A048091BB00F0E0E75EFB4F5E
:1019700080838091180481115CCF81E080931704EB
:1019800084EA8093BC001092160426CF85EC8093E5
:10199000BC001092160480911404803230F4E0915F
:1019A0001404F0E0EC50FC4F10826091140470E0DD
:1019B000E0913C04F0913D0484EF93E0099510928E
:1019C00014040ACF1092150434CF10920A06109214
:1019D000090688EE93E0A0E0B0E080930B069093B8
:1019E0000C06A0930D06B0930E0629E331E0309368
:1019F00008062093070625EC30E030931406209368
:101A0000130624EC30E0309316062093150620ECE4
:101A100030E0309318062093170621EC30E0309325
:101A20001A062093190622EC30E030931C0620930E
:101A30001B0626EC30E030931E0620931D06109204
:101A40002006109221061092220610922306109270
:101A5000A7061092A6068093A8069093A906A093C5
:101A6000AA06B093AB068BE491E09093A506809311
:101A7000A406109228071092270787E691E090931A
:101A80002607809325078FE38093290784E18093BD
:101A90002E0784E080932F07109230071092B8062B
:101AA0001092BC061092BB061092BD068DE591E027
:101AB0009093B7068093B606E2EDF6E010821482AA
:101AC00013821582369687E0EE30F807B9F787E083
:101AD00091E0909319078093180784E091E0909328
:101AE0001B0780931A0784E080931C0783E0809390
:101AF0001D078BE091E090931707809316078AE00B
:101B000090E090931F0780931E0784EF91E09093DD
:101B10002107809320071092240710922307109228
:101B200012071092130710921407109215071092C3
:101B3000220762E272E080EB96E00C94340ACF93C5
:101B4000DF93CDB7DEB764970FB6F894DEBF0FBE54
:101B5000CDBF789484B5826084BD84B5816084BD36
:101B600085B5826085BD85B5816085BD80916E003B
:101B7000816080936E00109281008091810082606C
:101B800080938100809181008160809381008091A9
:101B900080008160809380008091B1008460809398
:101BA000B1008091B00081608093B00080917A0094
:101BB000846080937A0080917A00826080937A00BA
:101BC00080917A00816080937A0080917A008068A9
:101BD00080937A001092C100E0911706F0911806E8
:101BE00082E08083E0911306F09114061082E09168
:101BF0001506F09116068FEC808310921F06E09177
:101C00001B06F0911C0686E08083E0911906F09196
:101C10001A06808180618083E0911906F0911A068E
:101C2000808188608083E0911906F0911A06808196
:101C300080688083E0911906F0911A0680818F7D7B
:101C40008083109243041092420410924104109237
:101C500040040E94C6048DE793E090933F04809374
:101C60003E048EE793E090933D0480933C041092F1
:101C70002A0780912F07823018F098E090932A0766
:101C800080932D0762E370E080E090E00E949C0169
:101C90006091300785E297E00E948B0568EE73E063
:101CA00080E090E00E949C0160E385E297E00E9462
:101CB00013080BE416E4C8010197F1F760E385E22D
:101CC00097E00E941308C8010197F1F760E385E2ED
:101CD00097E00E94130883E592E00197F1F760E234
:101CE00085E297E00E94130860912A07606240E055
:101CF00085E297E00E942C0884E080932B0740E067
:101D00006CE085E297E00E942C080E94430882E084
:101D100080932C0740E066E085E297E00E942C0863
:101D200040E062E085E297E00E942C088BE39FE1AF
:101D30000197F1F788E08093300760E085E297E053
:101D40000E948B0560E080E00E944E086EE771E023
:101D500085E297E00E94300968EE73E080E090E051
:101D60000E949C010E9443086EE871E085E297E0C2
:101D70000E94300980914A04882321F0809149040F
:101D80008111B8C00E9436028823A1F390ED980F0C
:101D90009A30D0F40E94860961E080E00E944E08EB
:101DA000CE0101960E94E50969E971E0CE01019634
:101DB0000E949B09BC0185E297E00E947F03CE014F
:101DC00001960E94A508D6CF833209F083C0809186
:101DD0004A04811118C00E94870870930301609320
:101DE000020162E272E080EB96E00E94FE0981E06F
:101DF00080934A040E94430860E080E00E944E08FD
:101E000066EA71E0B3CF809149048111B3CF0E949B
:101E10008708709301016093000162E272E080EB39
:101E200096E00E94FE0981E0809349040E944308E5
:101E300060E080E00E944E0861EB71E085E297E08F
:101E40000E94300961E080E00E944E08609100012C
:101E500070910101CE0101960E94080A6091020171
:101E600070910301CE0107960E94080A66E372E0B2
:101E7000CE010D960E94340ABE01695F7F4FCE01EC
:101E80000D960E94B10969EB71E00E949B09BE01A9
:101E90006F5F7F4F0E94B1096BEB71E00E949B095D
:101EA000BC0185E297E00E947F03CE010D960E945F
:101EB000A508CE0107960E94A508CE0101960E94B2
:101EC000A50860ED77E080E090E00E949C010E9410
:101ED000430850CF8A3209F04DCF62E272E080EBC6
:101EE00096E00E94FE0961E080E00E944E0861EAEF
:101EF00071E03CCF0E94430860E080E00E944E0801
:101F00006DEB71E085E297E00E94300961E080E0CE
:101F10000E944E0866E771E085E297E00E94300972
:101F200062E272E080EB96E00E94FE098091440438
:101F300081114DC00E9436028823E9F090ED980F80
:101F40009A3000F50E94860961E087E00E944E0801
:101F5000CE0101960E94E50962EA71E0CE01019688
:101F60000E949B09BC0185E297E00E947F03CE019D
:101F700001960E94A50862E370E080E090E00E9474
:101F80009C01D4CF833281F40E9487087093480467
:101F90006093470462E272E080EB96E00E94FE09E3
:101FA00081E080934404E7CF8A3229F762E272E04D
:101FB00080EB96E00E94FE0961E087E00E944E08F7
:101FC00061EA71E085E297E00E943009D4CF809108
:101FD000470490914804069734F085E090E0909390
:101FE0004804809347046CE070E08091470490912E
:101FF00048040E9447169093460480934504892B19
:1020000009F48AC00E94430860E080E00E944E0804
:102010006FEC71E085E297E00E94300964EF71E0B7
:1020200080E090E00E949C01F12CE12CD12CC12C8D
:102030000091470410914804E0914504F091460452
:10204000C016D1060CF075C0EE0DFF1D108611866E
:10205000128613860E94430860E080E00E944E08CA
:102060002FEFC21AD20AB601CE0101960E94080AC9
:102070006DEE71E0CE0107960E94340ABE016F5FDB
:102080007F4FCE0107960E94B109BC0185E297E01F
:102090000E947F03CE0107960E94A508CE010196FB
:1020A0000E94A50880914504909146048E0D9F1DC5
:1020B00047EF51E0BC0108960E94450A8091450413
:1020C000909146048E0D9F1DBC016E5F7F4F4EEFB9
:1020D00051E009960E94450A80914504909146047A
:1020E0008E0D9F1DBC016A5F7F4F45E052E00A964E
:1020F0000E94450A80914504909146048E0D9F1DD3
:10210000BC016C5F7F4F4CE052E00B960E94450A89
:102110008CE0E80EF11C8CCF0E94430860E080E068
:102120000E944E086FED71E085E297E00E94300951
:10213000FFCF2BE434E089E1D9011D928A95E9F7BC
:1021400070E060E095E0992E882483946017710711
:10215000ACF580819181E280F380A480B580A68176
:10216000B781989EA001999E500D1124455B5B4F4D
:10217000A80EB91E3D016E0C7F1C8A159B05D4F478
:1021800085309105BCF497FD11C0970126153705E0
:102190006CF42530310554F437FD05C06A01C20ED8
:1021A000D31ED6018C922F5F3F4FF0CF01964B5F2D
:1021B0005F4FE3CF6F5F7F4F3C96C8CF0E944308CD
:1021C00060E080E00E944E0864EF71E080E090E003
:1021D0000E949C018091FD05811139C080914B04C2
:1021E00081111CC00E9476068823C1F0B1E0B09333
:1021F000FD050E94CE016093F9057093FA05809366
:10220000FB059093FC05A0E0B0E0AB2B19F30E9416
:10221000F7038823F9F20E940000DCCF62E172E04C
:1022200087E096E00E94AD0860E272E087E096E009
:102230000E94AD080E94430860E080E00E944E08C2
:1022400062E172E085E297E00E943009FFCF809161
:10225000F8058111D8CF86E6282E84E0382EEEE2EC
:10226000F5E0FC8BEB8B10E000E08091F60590919F
:10227000F705081719070CF0C5C10E94430860E074
:1022800080E00E944E0863E272E085E297E00E94DF
:10229000300961E080E00E944E08AB89BC896D91F5
:1022A0007C91CE010D960E94080AF1016081718136
:1022B000CE0107960E94080A66E372E0CE010196FD
:1022C0000E94340ABE01695F7F4FCE0101960E94D1
:1022D000B10969EB71E00E949B09BE01635F7F4F0A
:1022E0000E94B1096BEB71E00E949B09BC0185E281
:1022F00097E00E947F03CE0101960E94A508CE01BF
:1023000007960E94A508CE010D960E94A50880910F
:102310006404909165048C599F4F90936504809359
:1023200064040E94CE01C090F905D090FA05E090B7
:10233000FB05F090FC056C197D098E099F090E9430
:10234000AA1320E030E04AE754E40E946D156B01C7
:102350007C010F5F1F4F20E030E0A9010E9415169D
:1023600018160CF0D8C0B801012E000C880B990B80
:102370000E94AC13A70196010E946D156B017C01B0
:102380006DE272E087E096E00E943009D1018D9104
:102390009C910E94020969EB71E087E096E00E943F
:1023A0003009EB89FC89808191810E94020968E3F0
:1023B00072E087E096E00E94300980916404909179
:1023C00065040E94020966E472E087E096E00E94DC
:1023D0003009A7019601C701B6010E941A1661E5EE
:1023E00072E081111BC046015701E894B7F82FEF46
:1023F0003FEF4FE75FE7C501B4010E941A16811154
:102400008EC02FEF3FEF4FE75FE7C501B4010E9499
:10241000A51318160CF083C065E572E087E096E01E
:102420000E94AD086DE572E0CE0101960E94340A6B
:10243000C80101971816190644F5D1018D919C9198
:10244000F101329720813181821B930B61E672E0AA
:1024500081309105B1F067E672E0019691F0EB8969
:10246000FC8980819181329720813181821B930B7D
:102470006DE572E08130910521F0019631F46CE652
:1024800072E0CE0101960E94FE098CE30E947A045C
:1024900060E772E087E096E00E94300920E030E0DB
:1024A00048EC52E4C701B6010E940B140E94DF15EC
:1024B000CB016F3F710519F014F08FEF90E097FF9B
:1024C00002C090E080E00E9402098CE20E947A043F
:1024D000BE016F5F7F4F87E096E00E947F038EE32F
:1024E0000E947A0460E272E087E096E00E94AD0804
:1024F00068EE73E080E090E00E949C01CE010196BE
:102500000E94A50822E0220E311C8B899C8902962C
:102510009C8B8B8BAACEC12CD12C760131CF2FEF87
:102520003FEF4FE75FE4C701B6010E94151618168A
:102530001CF469E572E072CF2FEF3FEF4FE75FECDD
:10254000C701B6010E94A51387FDF3CF20E030E05C
:10255000A901C701B6010E94A51387FF50C08DE2F3
:102560000E947A04C701B60190582AE037ED43EA89
:102570005BE30E9401152B013C010E94E6154B0113
:102580005C010E94AA139B01AC01C301B2010E942D
:1025900000152B013C014AE0C501B4010E94BC08B2
:1025A0008EE20E947A0420E030E040E251E4C30170
:1025B000B2010E940B142B013C010E94E6154B0155
:1025C000B12CA12C4AE0C501B4010E94BC08C50190
:1025D000B4010E94AA139B01AC01C301B2010E9485
:1025E000001520E030E040E251E40E940B140E940C
:1025F000E61590E080E04AE00E94BC0813CFC701D6
:10260000B601B3CF65E772E087E096E00E94AD08BF
:1026100060E272E087E096E00E94AD080E94430805
:1026200060E080E00E944E0865E772E085E297E096
:102630000E9430098CE30E947A0465E872E087E02A
:1026400096E00E9430098EE30E947A0460E272E014
:1026500087E096E00E94AD0891E09093F805D3CD15
:1026600080EB96E00C94A5081F93FC01992788271E
:10267000BC01E89411911032E9F3193010F01E30CA
:10268000C8F31B3251F01D3249F4689406C00E9411
:102690006613610F711D811D911D119110531A3028
:1026A000B0F33EF490958095709561957F4F8F4F74
:1026B0009F4F1F910895BB274A3031F4992322F48C
:1026C000BDE2909581959F4F0C947C13592F482F14
:1026D000372F262F660F771F881F991F660F771FCA
:1026E000881F991F620F731F841F951F660F771F26
:1026F000881F991F0895BB27FB015527AA27880F1C
:10270000991FAA1FA41710F0A41B83955051B9F765
:10271000A05DAA3308F0A95DA193009779F7B111E4
:10272000B1931192CB010C949513DC01FC01672F3E
:1027300071917723E1F7329704C07C916D93708398
:102740006291AE17BF07C8F308950E94E71308F41B
:1027500081E00895E89409C097FB3EF49095809538
:10276000709561957F4F8F4F9F4F9923A9F0F92F57
:1027700096E9BB279395F695879577956795B795D5
:10278000F111F8CFFAF4BB0F11F460FF1BC06F5FBB
:102790007F4F8F4F9F4F16C0882311F096E911C0CD
:1027A000772321F09EE8872F762F05C0662371F0EE
:1027B00096E8862F70E060E02AF09A95660F771F02
:1027C000881FDAF7880F9695879597F90895990FDE
:1027D0000008550FAA0BE0E8FEEF16161706E807EB
:1027E000F907C0F012161306E407F50798F0621B0C
:1027F000730B840B950B39F40A2661F0232B242BE1
:10280000252B21F408950A2609F4A140A6958FEFFF
:10281000811D811D08950E941E140C948F140E9426
:10282000811438F00E94881420F0952311F00C9444
:1028300078140C947E1411240C94C3140E94A014D8
:1028400070F3959FC1F3950F50E0551F629FF00103
:10285000729FBB27F00DB11D639FAA27F00DB11D1C
:10286000AA1F649F6627B00DA11D661F829F2227A5
:10287000B00DA11D621F739FB00DA11D621F839F2C
:10288000A00D611D221F749F3327A00D611D231F02
:10289000849F600D211D822F762F6A2F11249F5750
:1028A00050409AF0F1F088234AF0EE0FFF1FBB1F53
:1028B000661F771F881F91505040A9F79E3F510512
:1028C00080F00C9478140C94C3145F3FE4F3983EAA
:1028D000D4F3869577956795B795F795E7959F5FBC
:1028E000C1F7FE2B880F911D9695879597F908954E
:1028F00097F99F6780E870E060E008959FEF80ECB3
:10290000089500240A941616170618060906089555
:1029100000240A9412161306140605060895092EBB
:102920000394000C11F4882352F0BB0F40F4BF2B2A
:1029300011F460FF04C06F5F7F4F8F4F9F4F08956A
:1029400057FD9058440F551F59F05F3F71F0479560
:10295000880F97FB991F61F09F3F79F08795089545
:10296000121613061406551FF2CF4695F1DF08C064
:10297000161617061806991FF1CF86957105610581
:1029800008940895E894BB2766277727CB0197F929
:1029900008952F923F924F925F926F927F928F9203
:1029A0009F92AF92BF92CF92DF92EF92FF920F93DE
:1029B0001F93CF93DF93CDB7DEB7CA1BDB0B0FB6E8
:1029C000F894DEBF0FBECDBF09942A8839884888A5
:1029D0005F846E847D848C849B84AA84B984C8843B
:1029E000DF80EE80FD800C811B81AA81B981CE0F32
:1029F000D11D0FB6F894DEBF0FBECDBFED01089517
:102A00005058BB27AA270E9418150C948F140E94B7
:102A1000811438F00E94881420F039F49F3F19F493
:102A200026F40C947E140EF4E095E7FB0C947814D5
:102A3000E92F0E94A01458F3BA176207730784079E
:102A4000950720F079F4A6F50C94C2140EF4E095E5
:102A50000B2EBA2FA02D0B01B90190010C01CA0158
:102A6000A0011124FF27591B99F0593F50F4503E03
:102A700068F11A16F040A22F232F342F4427585FF5
:102A8000F3CF469537952795A795F0405395C9F70D
:102A90007EF41F16BA0B620B730B840BBAF09150C5
:102AA000A1F0FF0FBB1F661F771F881FC2F70EC064
:102AB000BA0F621F731F841F48F487957795679537
:102AC000B795F7959E3F08F0B0CF9395880F08F023
:102AD0009927EE0F9795879508950E9481150C947C
:102AE0008F140E94881458F00E94811440F029F439
:102AF0005F3F29F00C94781451110C94C3140C947A
:102B00007E140E94A01468F39923B1F3552391F326
:102B1000951B550BBB27AA2762177307840738F04C
:102B20009F5F5F4F220F331F441FAA1FA9F335D0A9
:102B30000E2E3AF0E0E832D091505040E695001C5D
:102B4000CAF72BD0FE2F29D0660F771F881FBB1F17
:102B5000261737074807AB07B0E809F0BB0B802DF5
:102B6000BF01FF2793585F4F3AF09E3F510578F021
:102B70000C9478140C94C3145F3FE4F3983ED4F3A0
:102B8000869577956795B795F7959F5FC9F7880FF5
:102B9000911D9695879597F90895E1E0660F771F47
:102BA000881FBB1F621773078407BA0720F0621BD8
:102BB000730B840BBA0BEE1F88F7E09508950E9403
:102BC000E6156894B1110C94C31408950E94A814DA
:102BD00088F09F5798F0B92F9927B751B0F0E1F0DE
:102BE000660F771F881F991F1AF0BA95C9F714C08E
:102BF000B13091F00E94C214B1E008950C94C21457
:102C0000672F782F8827B85F39F0B93FCCF38695C6
:102C100077956795B395D9F73EF490958095709523
:102C200061957F4F8F4F9F4F08950E94E71308F4DF
:102C30008FEF08950E94E713880B990B0895A1E286
:102C40001A2EAA1BBB1BFD010DC0AA1FBB1FEE1F26
:102C5000FF1FA217B307E407F50720F0A21BB30B71
:102C6000E40BF50B661F771F881F991F1A9469F7ED
:102C700060957095809590959B01AC01BD01CF0149
:102C80000895EE0FFF1F0590F491E02D09940F9326
:102C90001F93CF93DF93869F8001879F100D969F90
:102CA000100D1124C8010E946316EC01009729F051
:102CB000A80170E060E00E944E18CE01DF91CF9134
:102CC0001F910F9108950F931F93CF93DF9382303D
:102CD000910510F482E090E0E0913307F091340721
:102CE00030E020E0B0E0A0E0309799F42115310504
:102CF00009F44AC0281B390B24303105D8F58A81E4
:102D00009B816115710589F1FB0193838283FE012B
:102D100011C0408151810281138148175907E0F0A9
:102D20004817590799F4109761F012960C9312976F
:102D300013961C933296CF01DF91CF911F910F9183
:102D400008950093330710933407F4CF211531050C
:102D500051F04217530738F0A901DB019A01BD0178
:102D6000DF01F801C1CFEF01F9CF909334078093D1
:102D70003307CDCFFE01E20FF31F819391932250D1
:102D8000310939832883D7CF209131073091320719
:102D9000232B41F42091190130911A01309332070D
:102DA0002093310720911701309118012115310529
:102DB00041F42DB73EB740911B0150911C01241BDB
:102DC000350BE0913107F0913207E217F307A0F4D9
:102DD0002E1B3F0B2817390778F0AC014E5F5F4F71
:102DE0002417350748F04E0F5F1F5093320740936A
:102DF0003107819391939FCFF0E0E0E09CCFCF9398
:102E0000DF930097E9F0FC01329713821282A091C0
:102E10003307B0913407ED0130E020E01097A1F4C2
:102E200020813181820F931F209131073091320729
:102E30002817390709F061C0F0933207E093310792
:102E4000DF91CF910895EA01CE17DF07E8F54A81B7
:102E50005B819E0141155105B1F7E901FB83EA83CE
:102E600049915991C40FD51FEC17FD0761F480817A
:102E700091810296840F951FE9019983888382814D
:102E800093819B838A83F0E0E0E012968D919C9180
:102E900013970097B9F52D913C911197CD010296AA
:102EA000820F931F2091310730913207281739077D
:102EB00039F6309751F51092340710923307B093DA
:102EC0003207A0933107BCCFD383C28340815181A5
:102ED000840F951FC817D90761F44E5F5F4F888133
:102EE0009981480F591F518340838A819B81938325
:102EF00082832115310509F0B0CFF0933407E093B8
:102F000033079ECFFD01DC01C0CF13821282D7CFE1
:102F1000B0E0A0E0EEE8F7E10C94CB148C01009750
:102F200051F4CB010E9463168C01C801CDB7DEB706
:102F3000E0E10C94E714FC01E60FF71F9C0122501E
:102F40003109E217F30708F49DC0D901CD91DC9156
:102F50001197C617D70798F0C530D10530F3CE01C9
:102F600004978617970708F3C61BD70B2297C193C0
:102F7000D1936D937C93CF010E94FF16D6CF5B0156
:102F8000AC1ABD0A4C018C0E9D1EA0913307B09166
:102F90003407512C412CF12CE12C109731F5809104
:102FA0003107909132078815990509F05CC04616E3
:102FB000570608F058C080911701909118010097AA
:102FC00041F48DB79EB740911B0150911C01841BA9
:102FD000950BE817F90708F055C0F0933207E09316
:102FE0003107F90171836083A0CF8D919C91119776
:102FF00012966C90129713967C901397A815B905AA
:1030000059F56C0142E0C40ED11CCA14DB0420F156
:10301000AC014A195B09DA011296159780F06282B9
:10302000738251834083D9016D937C93E114F10441
:1030300071F0D7011396FC93EE93129776CF2296F8
:103040008C0F9D1FF90191838083F301EFCFF093E3
:103050003407E093330769CF4816590608F42C016A
:103060007D01D3019ACFCB010E9463167C010097AA
:1030700049F0AE01B8010E944518C8010E94FF1630
:10308000870153CF10E000E050CFFB01DC0102C00C
:1030900001900D9241505040D8F70895DC0101C0D5
:1030A0006D9341505040E0F70895FB01DC01019021
:1030B0000D920020E1F7089510E0C2E6D0E004C0D0
:1030C000FE010E9441162196C336D107C9F7F89434
:0230D000FFCF30
:1030D200FFFFFFFF0908070A0B0C0D3132333435AD
:1030E200363738392A30230000350780000100FFC7
:1030F200FF00000000000000000100FFFF00004090
:103102000014005400000000002D048D03BA037F58
:1031120004EB03C903DD03000000005C052F057307
:103122000605052805150506050000000073013394
:103132000102010000000081088D0373067206453A
:103142006E7465722000496E7075743A2000233DDA
:10315200456E746572202A3D436C65617200456E4E
:103162007465722058203A20002020202020202040
:10317200202020202000456E7465722059203A20BC
:10318200005461726765743A002C002900456E7420
:1031920065722023206F62737461636C65730049EA
:1031A2006E707574204F62737461636C6573004155
:1031B2006C6C6F63204661696C656421004F6273B9
:1031C2007461636C6520005820636F72640059203B
:1031D200636F726400486569676874005769647454
:1031E20068004E6F207061746820666F756E6400AF
:1031F2000D0A00526F626F742061743A00526F625E
:103202006F7420617420280029207C20456E636F32
:103212006465723A2000207C2053706565643A2010
:10322200006E616E00696E66006F766600465744F6
:10323200005249474854004C454654004257440006
:103242005350443A00526561636865642074617248
:1032520067657421005350443A302C53544F500048
:00000001FF
