:100000000C94DF000C9407010C9407010C94070179
:100010000C9407010C9407010C9407010C94070140
:100020000C9407010C9407010C9407010C94070130
:100030000C9407010C9407010C9407010C94070120
:100040000C94A6060C9407010C9416070C94F00669
:100050000C9407010C9407010C9407010C94070100
:100060000C9448070C94070100407A10F35A00A042
:10007000724E18090010A5D4E80000E87648170071
:1000800000E40B54020000CA9A3B000000E1F505B1
:10009000000080969800000040420F000000A086FB
:1000A00001000000102700000000E803000000002D
:1000B0006400000000000A000000000001000000D1
:1000C00000002C76D888DC674F0823DFC1DFAE59EB
:1000D000E1B1B796E5E3E453C63AE651997696E87E
:1000E000E6C28426EB898C9B62ED407C6FFCEFBC02
:1000F0009C9F40F2BAA56FA5F490055A2AF75C932D
:100100006B6CF9676DC11BFCE0E40D47FEF520E662
:10011000B500D0ED902E0300943577050080841E45
:10012000080000204E0A000000C80C333333330FA0
:10013000986E12831141EF8D2114893BE65516CF3D
:10014000FEE6DB18D1844B381BF77C1D901DA4BB49
:10015000E424203284725E228100C9F124ECA1E5FE
:100160003D2700000000240027002A0000000000B6
:10017000250028002B0000000008000201000003F9
:100180000407000000000000000000000000230041
:1001900026002900040404040404040402020202E8
:1001A000020203030303030301020408102040803A
:1001B000010204081020010204081020670811241D
:1001C0001FBECFEFD8E0DEBFCDBF22E0A8E5B1E093
:1001D00001C01D92A73CB207E1F711E0A0E0B1E039
:1001E000E4EDF0E202C005900D92A835B107D9F711
:1001F00010E0CFEDD0E004C02197FE010E94700E08
:10020000CE3DD107C9F70E94C0080C9468100C9429
:100210000000CF92DF92EF92FF92CF93DF93B091E5
:10022000B702A0E08111AB2F8091B80290E0880F57
:10023000991FAC0146575E4FC090BD02D090BE02E0
:10024000E090BF02F090C00230E020E0FA01C591DA
:10025000D491E881B90190E080E0EB23EA130AC071
:100260002F5F3F4F6C157D058E059F0578F36FEF6F
:100270007FEFCB01DF91CF91FF90EF90DF90CF9098
:10028000089590E0FC01EA58FE4F2491FC01E855E6
:10029000FE4F3491FC01EC56FE4FE491EE23C9F081
:1002A000222339F0233001F1A8F4213019F1223052
:1002B00029F1F0E0EE0FFF1FE459FE4FA591B49134
:1002C0008FB7F894EC91611126C030953E233C9392
:1002D0008FBF08952730A9F02830C9F0243049F79E
:1002E000809180008F7D03C0809180008F77809304
:1002F0008000DFCF84B58F7784BDDBCF84B58F7D61
:10030000FBCF8091B0008F778093B000D2CF8091E7
:10031000B0008F7DF9CF3E2BDACFCF93DF9390E003
:10032000FC01E855FE4F24918C569E4FFC018491B0
:100330008823D1F090E0880F991FFC01EE59FE4F01
:10034000A591B491FC01E459FE4FC591D49162305E
:1003500071F49FB7F8943C91822F809583238C93FE
:10036000E8812E2B28839FBFDF91CF9108958FB70F
:10037000F894EC912E2B2C938FBFF6CF3FB7F894C7
:100380008091FF0190910002A0910102B0910202C0
:1003900026B5A89B05C02F3F19F00196A11DB11DE0
:1003A0003FBFBA2FA92F982F8827BC01CD01620F1C
:1003B000711D811D911D42E0660F771F881F991FD7
:1003C0004A95D1F708958F929F92AF92BF92CF92A4
:1003D000DF92EF92FF924B015C010E94BE016B0124
:1003E0007C010E94BE016C197D098E099F09683E3F
:1003F000734081059105A8F321E0821A9108A108B4
:10040000B10888EEC80E83E0D81EE11CF11C8114EF
:100410009104A104B10429F7FF90EF90DF90CF90F1
:10042000BF90AF909F908F900895CF92DF92EF9200
:10043000FF920F931F93CF93DF93CDB7DEB7C054D6
:10044000D1400FB6F894DEBF0FBECDBF2FB7F894E2
:100450008091030290910402A0910502B0910602DE
:100460002FBF4091B9025091BA026091BB027091C6
:10047000BC028C019D01041B150B260B370BB90127
:10048000A801403D57406105710590F48091C1027B
:10049000C05CDE4F0FB6F894DEBF0FBECDBFDF915C
:1004A000CF911F910F91FF90EF90DF90CF90089523
:1004B0008093B9029093BA02A093BB02B093BC029E
:1004C0001092B4021092B3021092B2021092B102D2
:1004D0001092B00262E08091B5020E948D0161E04D
:1004E00070E080E090E00E94E30161E08091B5025D
:1004F0000E948D0160E08091B5020E9441018091CF
:10050000B6028551823020F58BE291E10197F1F737
:1005100062E08091B5020E948D018091C20290E05C
:100520008230910538F0880F991F880F991F059721
:100530000197F1F7F89480E00E9409016F3F7F4F27
:100540008F4F9F4F61F41092C102789480E0A0CF4A
:1005500064E170E080E090E00E94E301D9CF81E0A7
:100560000E9409016F3F7F4F8F4F9F4F61F38E01B4
:100570000F5F1F4F6E018FEBC81A8EEFD80A7801FC
:1005800080E00E940901F701608371838283938375
:1005900081E00E940901F701648375838683978354
:1005A000F8E0EF0EF11CEC14FD0451F7789430E004
:1005B00020E0F801C080D180E280F3804481558141
:1005C00066817781FFEFCF16DF06EF06FF0631F079
:1005D0004F3F8FEF58076807780719F41092C10250
:1005E000B5CFF90183E0F595E7958A95E1F7E055F8
:1005F000FD4F8081880FC416D506E606F70610F178
:1006000080832F5F3F4F085F1F4F2832310589F6E7
:100610004091B4022091B0028091B102280F33279B
:10062000331F8091B202280F311D8091B302820FD7
:10063000932F911D99274817190681F681E0809321
:10064000C10226CF8160DCCFE091F001F091F10191
:10065000309729F01092ED011092EC010994089561
:100660000895AF92BF92CF92DF92EF92FF920F93D5
:100670001F93CF93DF936C017B018B01040F151F38
:10068000EB015E01AE18BF08C017D10759F06991A0
:10069000D601ED91FC910190F081E02DC601099504
:1006A000892B79F7C501DF91CF911F910F91FF90B1
:1006B000EF90DF90CF90BF90AF900895FC01538DE5
:1006C000448D252F30E0842F90E0821B930B54172C
:1006D00010F0CF96089501970895FC01918D828DB9
:1006E000981761F0A28DAE0FBF2FB11D5D968C9152
:1006F000928D9F5F9F73928F90E008958FEF9FEF91
:100700000895FC01918D828D981731F0828DE80F4C
:10071000F11D858D90E008958FEF9FEF0895FC0106
:10072000918D228D892F90E0805C9F4F821B9109D3
:100730008F739927089587E092E00E948F0321E04C
:10074000892B09F420E0822F089580E090E0892B26
:1007500029F00E949B0381110C9400000895FC0174
:10076000A48DA80FB92FB11DA35ABF4F2C91848D12
:1007700090E001968F739927848FA689B7892C936F
:10078000A089B1898C91837080648C93938D848DC2
:10079000981306C00288F389E02D80818F7D8083C5
:1007A0000895EF92FF920F931F93CF93DF93EC0185
:1007B00081E0888F9B8D8C8D98131AC0E889F98908
:1007C000808185FF15C09FB7F894EE89FF8960830B
:1007D000E889F98980818370806480839FBF81E08C
:1007E00090E0DF91CF911F910F91FF90EF900895CE
:1007F000F62E0B8D10E00F5F1F4F0F731127E02EA9
:100800008C8D8E110CC00FB607FCFACFE889F989E0
:10081000808185FFF5CFCE010E94AF03F1CFEB8D34
:10082000EC0FFD2FF11DE35AFF4FF0829FB7F894B4
:100830000B8FEA89FB8980818062CFCFCF93DF93D2
:10084000EC01888D8823B9F0AA89BB89E889F989E8
:100850008C9185FD03C0808186FD0DC00FB607FC1D
:10086000F7CF8C9185FFF2CF808185FFEDCFCE0150
:100870000E94AF03E9CFDF91CF91089520919E01AF
:10088000260F3327331F21323105ECF42091C201AA
:10089000FC0190E080E0243069F082E00895A091AE
:1008A0009E012191AC0142585E4FA40FB52FB11D9E
:1008B0002C930196861798F380919E01680F6093A0
:1008C0009E0180E0089581E008951092C20181E0C8
:1008D0008093C4011092C30161E082E10E94410152
:1008E00061E083E10E944101E9EBF0E080818E7FCD
:1008F000808380818D7F808388E48093B80085E445
:100900008093BC0008950895E091EF018091EE017D
:10091000E81730F4F0E0E85AFE4F808190E0089547
:100920008FEF9FEF08959091EF018091EE012FEFEF
:100930003FEF981748F4E92FF0E0E85AFE4F208186
:1009400030E09F5F9093EF01C90108958091EE011F
:100950009091EF01891B990B0895CF93DF93CB0101
:10096000EA01642F0E943E04CE01DF91CF910895E9
:10097000CF93DF931F92CDB7DEB7698361E0CE01DD
:1009800001960E943E0481E090E00F90DF91CF91AC
:10099000089590E080E00895FC0101900020E9F7BF
:1009A0003197AF01481B590BBC0187E092E00C94D2
:1009B00031030F931F93CF93DF93EC0188819981CB
:1009C000009759F02A813B812617370730F081E0E4
:1009D000DF91CF911F910F9108958B016F5F7F4F32
:1009E0000E949B0F009759F0998388831B830A8389
:1009F0002C813D81232B59F7FC011082E8CF80E048
:100A0000E7CFCF93DF93EC0188819981009711F0B4
:100A10000E94120F198218821D821C821B821A8268
:100A2000DF91CF910895CF92DF92EF92FF920F93D3
:100A30001F93CF93DF93CDB7DEB7A1970FB6F8948E
:100A4000DEBF0FBECDBF7C01CB01BA01F701118221
:100A5000108213821282158214828E010F5F1F4F43
:100A600021E043E00E947C0A6C01009771F0FC01D8
:100A700001900020E9F731978F01081B190BB8018D
:100A8000C7010E94D904811112C0C7010E9401054B
:100A9000A1960FB6F894DEBF0FBECDBFDF91CF9108
:100AA0001F910F91FF90EF90DF90CF900895F70185
:100AB00015830483B601808191810E946110E8CF83
:100AC000FC0180819181009711F00C94120F089520
:100AD000EF92FF920F931F93CF93DF93EC01198254
:100AE00018821B821A821D821C828617970719F1B1
:100AF000FB010081118101151105E9F0E480F58009
:100B0000B7010E94D904811109C0CE01DF91CF91B4
:100B10001F910F91FF90EF900C940105FD82EC82E4
:100B2000B80188819981DF91CF911F910F91FF903A
:100B3000EF900C946110DF91CF911F910F91FF9076
:100B4000EF900895EF92FF920F931F93CF93DF934F
:100B5000CDB7DEB768970FB6F894DEBF0FBECDBF36
:100B60004091F2015091F3016091F4017091F5010F
:100B7000CE010D960E9413054091F6015091F701A8
:100B80006091F8017091F901CE0101960E94130560
:100B9000BE016F5F7F4FCE0107960E9468050B85EF
:100BA0001C850F5F1F4FB801CE0107960E94D90424
:100BB000882309F46AC02F8138858B859C856AE279
:100BC00071E0820F931F0E9461101C870B87ED84D8
:100BD000FE84E114F10409F45DC009891A89011544
:100BE0001105B9F08B859C85080F191FB801CE013E
:100BF00007960E94D904882309F44CC02F813885B8
:100C00008B859C85B701820F931F0E9461101C8702
:100C10000B87BE01695F7F4FCE0143960E94680536
:100C2000CE0107960E946005CE0101960E946005E4
:100C3000CE010D960E9460054F89588D6B897C8985
:100C400084EA92E00E94AD048CE291E00E94CC0420
:100C50004F89588D6B897C8987E092E00E9431032F
:100C600082E491E00E94CC04CE0143960E9460058C
:100C700068960FB6F894DEBF0FBECDBFDF91CF915F
:100C80001F910F91FF90EF900895CE0107960E945B
:100C900001059DCFCE0107960E940105BACFCF93E3
:100CA000DF9385ED8093BC0080917A0190917B0168
:100CB000A0917C01B0917D010796A11DB11D23E09B
:100CC000B695A795979587952A95D1F72091BC0061
:100CD00024FD03C01092C20136C040917A015091A8
:100CE0007B0160917C0170917D01452B462B472B48
:100CF00069F30097A105B10541F02AE22A95F1F7C1
:100D000000C00197A109B109E1CF8091790191E07B
:100D1000909378018823B9F0C091B800D091BA00BF
:100D20008091BC008A7B8093BC0060E082E10E94DD
:100D3000410160E083E10E9441010E946504D0937B
:100D4000BA00C093B800DF91CF9108951F920F921F
:100D50000FB60F9211242F933F938F939F93AF93CE
:100D6000BF938091030290910402A0910502B0917B
:100D700006023091FE0123E0230F2D3758F501962E
:100D8000A11DB11D2093FE018093030290930402E4
:100D9000A0930502B09306028091FF01909100029A
:100DA000A0910102B09102020196A11DB11D809394
:100DB000FF0190930002A0930102B0930202BF9141
:100DC000AF919F918F913F912F910F900FBE0F90F8
:100DD0001F90189526E8230F0296A11DB11DD2CFB2
:100DE0001F920F920FB60F9211242F933F934F93A0
:100DF0005F936F937F938F939F93AF93BF93EF9383
:100E0000FF9387E092E00E94AF03FF91EF91BF91C3
:100E1000AF919F918F917F916F915F914F913F9192
:100E20002F910F900FBE0F901F9018951F920F9249
:100E30000FB60F9211242F938F939F93EF93FF93ED
:100E4000E0911702F09118028081E0911D02F0916B
:100E50001E0282FD1BC09081809120028F5F8F73E4
:100E600020912102821741F0E0912002F0E0E95F39
:100E7000FD4F958F80932002FF91EF919F918F916D
:100E80002F910F900FBE0F901F9018958081F4CF77
:100E90001F920F920FB60F9211242F933F934F93EF
:100EA0005F936F937F938F939F93AF93BF93EF93D2
:100EB000FF938091B900887F803609F44AC0F0F52D
:100EC000883209F4A7C018F5803109F49BC0B8F442
:100ED000882309F4F9C0883009F494C0FF91EF9198
:100EE000BF91AF919F918F917F916F915F914F9142
:100EF0003F912F910F900FBE0F901F901895883142
:100F000009F488C0803251F78093C10114C0803445
:100F100009F49DC040F48033B9F38833F9F6809327
:100F2000C10185ECB0C0803509F485C0883509F46D
:100F300096C0883499F60E944F06D0CF883909F4BC
:100F40008CC038F5883729F050F4883611F0803796
:100F500029F683E08093C2011092C00157C08838FF
:100F600009F47BC0803919F0803809F0B7CF80913F
:100F7000C001803208F071C0E091C00181E08E0FA5
:100F80008093C0018091BB00F0E0E056FE4F80836B
:100F90003DC0803B39F0E0F4803A09F479C0883AEA
:100FA00009F09CCF84E08093C20110929F011092BF
:100FB0009E01E091EA01F091EB01099580919E017B
:100FC00081110FC081E080939E0110927E0109C0C3
:100FD000803C09F4A6CF883C09F4A3CF883B09F0F4
:100FE0007DCFE0919F0181E08E0F80939F01F0E023
:100FF000E258FE4F80818093BB0090919F018091C9
:101000009E0129C08091E7018093BB0085EC80930D
:10101000BC0064CF9091E6018091E501981758F5E6
:10102000E091E60181E08E0F8093E601F0E0EB5362
:10103000FE4F8081E9CFE091E60181E08E0F809341
:10104000E6018091BB00F0E0EB53FE4F808390916E
:10105000E6018091E5019817C8F285E8D8CFE091C4
:10106000E60181E08E0F8093E6018091BB00F0E005
:10107000EB53FE4F80838091C40181115CCF81E0EE
:101080008093C30184EA8093BC001092C20126CFF2
:1010900085EC8093BC001092C2018091C001803227
:1010A00030F4E091C001F0E0E056FE4F1082609114
:1010B000C00170E0E091E801F091E90180EA91E07F
:1010C00009951092C0010ACF1092C10134CFE7E018
:1010D000F2E01382128288EE93E0A0E0B0E0848315
:1010E0009583A683B7832AE031E03183208325EC02
:1010F00030E03587248724EC30E03787268720ECE2
:1011000030E0318B208B21EC30E0338B228B22ECD2
:1011100030E0358B248B26EC30E0378B268B118E1C
:10112000128E138E148EE4EAF2E01382128284830C
:101130009583A683B7838CE191E091838083A0EBB4
:10114000B2E08EE015968C9315978BE016968C93F3
:101150001697E6EBF1E0E4911796EC931797E2EA25
:10116000F1E0E4911896EC93189740E85EE360E0B4
:1011700070E01D964D935D936D937C935097089509
:10118000789484B5826084BD84B5816084BD85B562
:10119000826085BD85B5816085BD80916E0081606E
:1011A00080936E0010928100809181008260809314
:1011B0008100809181008160809381008091800016
:1011C0008160809380008091B10084608093B10041
:1011D0008091B00081608093B00080917A0084603B
:1011E00080937A0080917A00826080937A00809167
:1011F0007A00816080937A0080917A008068809381
:101200007A001092C1001092EF011092EE0110923C
:10121000ED011092EC010E94650484E293E090934A
:10122000EB018093EA0180E393E09093E9018093DE
:10123000E80184E08093BA00E0911702F09118026F
:1012400082E08083E0911302F09114021082E09119
:101250001502F09116028FEC808310921F02E0912C
:101260001B02F0911C0286E08083E0911902F0914C
:101270001A02808180618083E0911902F0911A0244
:10128000808188608083E0911902F0911A02808148
:1012900080688083E0911902F0911A0280818F7D2D
:1012A000808364EF71E080E090E00E94E30162E0FF
:1012B0008091B5020E948D012FB7F89480910302AE
:1012C00090910402A0910502B09106022FBF805DAB
:1012D0009740A109B1098093B9029093BA02A093F3
:1012E000BB02B093BC0287E38093C20282EA95E01E
:1012F0009093F1018093F001C0E0D0E02FB7F89413
:101300008091030290910402A0910502B09106021F
:101310002FBF4091FA015091FB016091FC01709147
:10132000FD018C019D01041B150B260B370BB90128
:10133000A801453F51406105710508F4B2C0809392
:10134000FA019093FB01A093FC01B093FD010E9470
:101350001502882349F08091B6028B3028F08D3039
:1013600040F085518230D0F160E070E080EC9FE782
:101370001CC06091B10270E090E080E00E94D30C4C
:101380002DEC3CEC4CEC5DE30E940E0D6B017C01FE
:101390006091B00270E090E080E00E94D30C9B016D
:1013A000AC01C701B6010E94040E6093F601709370
:1013B000F7018093F8019093F9010E9415028823A8
:1013C00041F08091B6028C3009F476C0C8F48B30BD
:1013D00081F160E070E080EC9FE753C06091B00263
:1013E0007091B10276276727762790E080E00E940F
:1013F000D10C2DEC3CEC4CEC5DE30E940E0DD5CFF6
:101400008551823030F71091B202612F70E0762F53
:10141000662766277F778091B302682B90E080E093
:101420000E94D10C2DEC3CEC4CEC5DE30E940E0DC7
:101430005FC06091B20270E090E080E00E94D10C49
:101440006B017C011091B30217FF0AC0AC019B0134
:1014500060E070E080E89FEB0E94030E6B017C016E
:101460001F70612F70E090E080E00E94D30C2DECA3
:101470003CEC4CEC5DE30E940E0DA70196010E942E
:10148000040E6093F2017093F3018093F401909342
:10149000F50185E491E00E94CC0482E491E00E9491
:1014A000CC04209709F42ACF0E949B03882309F4D7
:1014B00025CF0E94000022CF1091B202612F70E070
:1014C00090E080E00E94D10C6B017C016091B3023E
:1014D0006F7070E090E080E00E94D30C2DEC3CEC4B
:1014E0004CEC5DE30E940E0DA70196010E94040ED4
:1014F00017FFC7CF9058C5CFEF920F931F93CF938D
:10150000DF93E80134E047FD34E1042E000C550B75
:1015100057FF03C0519541955109E32E022F242F07
:10152000AE010E949A0ACE01DF91CF911F910F91D7
:10153000EF900895A9E0B0E0E0EAFAE00C94D20D53
:101540006A01F22EB02E102FFBE3AF2EA01608F486
:101550001BE31F5F012F27E0AE014F5F5F4F0E942B
:10156000F90BBC018981982F9970913009F43FC023
:101570009BE2E1FC04C09E2D9170E0FC3AC05E2D20
:101580005071E82FE87083FF46C084E0911101C0DC
:1015900083E0EF2DE81B8F1508F0E0E0D6018E2FD9
:1015A00020E2552351F1992329F0D6019C93C601DD
:1015B00001966C0196012D5F3F4FE2FE24C08EE440
:1015C000D6018C9391E411969C93119712968C936B
:1015D000D9018E2F90E281111BC0E20FF32FF11D74
:1015E00010828EEF9FEF2996ECE00C94EE0D9DE2B9
:1015F000C6CF90E2C4CF2D9381508111FCCFCE0E87
:10160000D11CE0E0D0CF8EE6D6018C9391E6DBCF03
:101610009D938150E0CF482F447082FF3DC084E00D
:10162000911101C083E08F1510F4EF2DE81BD60156
:101630008E2F20E2552309F1992329F0D6019C939E
:10164000C60101966C0196012D5F3F4FE2FE1BC063
:1016500089E4D6018C938EE411968C93119786E4DD
:1016600012968C93D9018E2F90E2882309F4B5CF7E
:101670009D938150FACF2D9381508111FCCFCE0ED6
:10168000D11CE0E0D9CF89E6D6018C938EE6119685
:101690008C93119786E6E4CF9B0177FF02C030E080
:1016A00020E0A1E0B0E0911102C0B0E0A0E0F901BB
:1016B0003196AE0FBF1F8B2C912CBB2009F461C05B
:1016C0005401EFEFAE1ABE0AAA0DBB1DFA161B0697
:1016D00019F014F04F2D4A1B511188C0E3FC59C07A
:1016E0007601A42FB0E2A1114FC0C40ED11C9923E2
:1016F00009F45BC040E0D6011196F60190836D01BC
:10170000552309F448C0012F060F9A81582F5071B4
:1017100084FF03C0913309F4015010160CF047C048
:10172000093008F008E0EEE2FE2E5B01A01AB108D5
:1017300085019194819491082F3F320729F4D601B5
:10174000FC92F60131966F016217730794F102174C
:1017500013077CF5DB01A21BB30BAA24A394B12CC5
:10176000AC0EBD1EAA0DBB1D11968C9121503109E6
:10177000D601119628153905F4F0F60180836D0124
:10178000DBCFB12CA12CA0CFF701B1937F01A150E9
:10179000AACF9111B0CFD601942F50E302C05D9330
:1017A00091509111FCCFC40ED11C40E0ACCF01E0B0
:1017B000BACF80E3DBCF6217730731F4963388F436
:1017C000953311F4552369F0F6018083FD01842FD0
:1017D00090E2811108C0A40FB11D1C9290E080E03E
:1017E00002CF81E3F1CF91938150F3CF911183CF59
:1017F0008ACF283008F027E03327DA01990F311D0E
:1018000087FD916000966105710539F432602E5FA5
:101810003D9330E32A95E1F708959F3F30F08038FB
:101820007105610509F03C5F3C5F3D93913008F024
:101830008068911DDF93CF931F930F93FF92EF92D8
:10184000192F987F9695E92F96959695E90FFF2782
:10185000EE53FF4F99273327EE24FF24A701E7011A
:1018600005900894079428F4360FE71EF81E491FC8
:10187000511D660F771F881F991F0694A1F70590C9
:10188000079428F4E70EF81E491F561FC11D770F55
:10189000881F991F661F0694A1F70590079428F4E6
:1018A000F80E491F561FC71FD11D880F991F661FAD
:1018B000771F0694A1F70590079420F4490F561F4F
:1018C000C71FD81F990F661F771F881F0694A9F797
:1018D00084911095177041F0D695C7955795479507
:1018E000F794E7941A95C1F7E8E6F0E0689415904C
:1018F000159135916591959105907FE27395E11869
:10190000F10A430B560BC90BD009C0F7E10CF11ECD
:10191000431F561FC91FD01D7EF4703311F48A95E2
:10192000E6CFE894015030F0080F0AF400270217C0
:1019300008F4202F2395022F7A3328F079E37D9342
:101940002A95E9F710C07D932A9589F60694979514
:101950006795379517951794E118F10A430B560BC5
:10196000C90BD00998F023957E9173957A3308F0CE
:1019700070E37C932013B8F77E9170617D9330F013
:10198000839571E37D9370E32A95E1F71124EF903D
:10199000FF900F911F91CF91DF91992787FD90952F
:1019A0000895E89409C097FB3EF490958095709552
:1019B00061957F4F8F4F9F4F9923A9F0F92F96E99B
:1019C000BB279395F695879577956795B795F11110
:1019D000F8CFFAF4BB0F11F460FF1BC06F5F7F4FAD
:1019E0008F4F9F4F16C0882311F096E911C07723BF
:1019F00021F09EE8872F762F05C0662371F096E8C8
:101A0000862F70E060E02AF09A95660F771F881F96
:101A1000DAF7880F9695879597F908950E94210D1A
:101A20000C94920D0E94840D38F00E948B0D20F0D2
:101A3000952311F00C947B0D0C94810D11240C94C2
:101A4000C60D0E94A30D70F3959FC1F3950F50E052
:101A5000551F629FF001729FBB27F00DB11D639F60
:101A6000AA27F00DB11DAA1F649F6627B00DA11D06
:101A7000661F829F2227B00DA11D621F739FB00DAC
:101A8000A11D621F839FA00D611D221F749F33271C
:101A9000A00D611D231F849F600D211D822F762FB5
:101AA0006A2F11249F5750409AF0F1F088234AF092
:101AB000EE0FFF1FBB1F661F771F881F91505040FE
:101AC000A9F79E3F510580F00C947B0D0C94C60D38
:101AD0005F3FE4F3983ED4F3869577956795B79585
:101AE000F795E7959F5FC1F7FE2B880F911D96959F
:101AF000879597F9089597F99F6780E870E060E00F
:101B000008959FEF80EC089500240A941616170696
:101B100018060906089500240A94121613061406DE
:101B200005060895092E0394000C11F4882352F041
:101B3000BB0F40F4BF2B11F460FF04C06F5F7F4FF9
:101B40008F4F9F4F089557FD9058440F551F59F0E0
:101B50005F3F71F04795880F97FB991F61F09F3F9A
:101B600079F087950895121613061406551FF2CFC3
:101B70004695F1DF08C0161617061806991FF1CF13
:101B800086957105610508940895E894BB2766273A
:101B90007727CB0197F908952F923F924F925F924A
:101BA0006F927F928F929F92AF92BF92CF92DF926D
:101BB000EF92FF920F931F93CF93DF93CDB7DEB7D2
:101BC000CA1BDB0B0FB6F894DEBF0FBECDBF099466
:101BD0002A88398848885F846E847D848C849B84BD
:101BE000AA84B984C884DF80EE80FD800C811B81CB
:101BF000AA81B981CE0FD11D0FB6F894DEBF0FBEFA
:101C0000CDBFED0108955058BB27AA270E941B0E97
:101C10000C94920D0E94840D38F00E948B0D20F0E0
:101C200039F49F3F19F426F40C94810D0EF4E095DD
:101C3000E7FB0C947B0DE92F0E94A30D58F3BA1714
:101C4000620773078407950720F079F4A6F50C94D2
:101C5000C50D0EF4E0950B2EBA2FA02D0B01B90186
:101C600090010C01CA01A0011124FF27591B99F012
:101C7000593F50F4503E68F11A16F040A22F232F1E
:101C8000342F4427585FF3CF469537952795A7956E
:101C9000F0405395C9F77EF41F16BA0B620B730B15
:101CA000840BBAF09150A1F0FF0FBB1F661F771F86
:101CB000881FC2F70EC0BA0F621F731F841F48F43B
:101CC000879577956795B795F7959E3F08F0B0CFC4
:101CD0009395880F08F09927EE0F979587950895AB
:101CE000EE0FFF1F0590F491E02D09940F931F93C1
:101CF000CF93DF938230910510F482E090E0E09181
:101D0000C502F091C60230E020E0B0E0A0E03097DC
:101D100099F42115310509F44AC0281B390B2430E8
:101D20003105D8F58A819B816115710589F1FB0127
:101D300093838283FE0111C040815181028113810E
:101D400048175907E0F04817590799F4109761F0C0
:101D500012960C93129713961C933296CF01DF9133
:101D6000CF911F910F9108950093C5021093C60261
:101D7000F4CF2115310551F04217530738F0A9016E
:101D8000DB019A01BD01DF01F801C1CFEF01F9CFFD
:101D90009093C6028093C502CDCFFE01E20FF31FE0
:101DA000819391932250310939832883D7CF209191
:101DB000C3023091C402232B41F4209102013091DF
:101DC00003013093C4022093C3022091000130919B
:101DD00001012115310541F42DB73EB740910401B1
:101DE00050910501241B350BE091C302F091C40210
:101DF000E217F307A0F42E1B3F0B2817390778F0E2
:101E0000AC014E5F5F4F2417350748F04E0F5F1F40
:101E10005093C4024093C302819391939FCFF0E00B
:101E2000E0E09CCFCF93DF930097E9F0FC0132977D
:101E300013821282A091C502B091C602ED0130E07A
:101E400020E01097A1F420813181820F931F20910F
:101E5000C3023091C4022817390709F061C0F0931A
:101E6000C402E093C302DF91CF910895EA01CE1737
:101E7000DF07E8F54A815B819E0141155105B1F705
:101E8000E901FB83EA8349915991C40FD51FEC17EF
:101E9000FD0761F4808191810296840F951FE9010D
:101EA00099838883828193819B838A83F0E0E0E039
:101EB00012968D919C9113970097B9F52D913C91B5
:101EC0001197CD010296820F931F2091C30230918A
:101ED000C4022817390739F6309751F51092C60217
:101EE0001092C502B093C402A093C302BCCFD383A7
:101EF000C28340815181840F951FC817D90761F4AF
:101F00004E5F5F4F88819981480F591F51834083ED
:101F10008A819B81938382832115310509F0B0CF9B
:101F2000F093C602E093C5029ECFFD01DC01C0CF55
:101F300013821282D7CFB0E0A0E0E1EAFFE00C9478
:101F4000CE0D8C01009751F4CB010E94760E8C01CE
:101F5000C801CDB7DEB7E0E10C94EA0DFC01E60F55
:101F6000F71F9C0122503109E217F30708F49DC0C6
:101F7000D901CD91DC911197C617D70798F0C530DC
:101F8000D10530F3CE0104978617970708F3C61BD7
:101F9000D70B2297C193D1936D937C93CF010E946D
:101FA000120FD6CF5B01AC1ABD0A4C018C0E9D1EE0
:101FB000A091C502B091C602512C412CF12CE12C0C
:101FC000109731F58091C3029091C402881599054C
:101FD00009F05CC04616570608F058C08091000111
:101FE00090910101009741F48DB79EB74091040193
:101FF00050910501841B950BE817F90708F055C0AF
:10200000F093C402E093C302F90171836083A0CF0F
:102010008D919C91119712966C90129713967C90CB
:102020001397A815B90559F56C0142E0C40ED11CEF
:10203000CA14DB0420F1AC014A195B09DA011296DB
:10204000159780F06282738251834083D9016D932A
:102050007C93E114F10471F0D7011396FC93EE9395
:10206000129776CF22968C0F9D1FF9019183808362
:10207000F301EFCFF093C602E093C50269CF481693
:10208000590608F42C017D01D3019ACFCB010E949F
:10209000760E7C01009749F0AE01B8010E945810FD
:1020A000C8010E94120F870153CF10E000E050CF0B
:1020B000FB01DC0102C001900D9241505040D8F765
:1020C0000895FB01DC0101900D920020E1F70895D5
:0420D000F894FFCFB2
:1020D4000000C702800000000000D10331035E034A
:1020E4001E048F036D03810300000000B804AD04D7
:1020F400C9048304A604930484042C003E3E207384
:10210400656E64696E67206F766572204932433A62
:1021140020000D0A0072656164696E67202D2D2010
:082124007375636365737300BA
:00000001FF
