:100000000C9476000C949E000C949E000C949E0020
:100010000C949E000C949E000C949E000C949E00E8
:100020000C949E000C949E000C949E000C949E00D8
:100030000C949E000C949E000C949E000C949E00C8
:100040000C94C3080C949E000C9433090C940D0975
:100050000C949E000C949E000C949E000C949E00A8
:100060000C9465090C949E004E414E494E495459DA
:10007000494E46CDCCCC3D0AD7233C17B7D1387773
:10008000CC2B329595E6241FB14F0A000020410089
:1000900000C84200401C4620BCBE4CCA1B0E5AAED3
:1000A000C59D7400000000250028002B00040404F6
:1000B0000404040404020202020202030303030311
:1000C00003010204081020408001020408102001EE
:1000D00002040810200000000800020100000304D0
:1000E00007000000000000000000840A11241FBE69
:1000F000CFEFD8E0DEBFCDBF23E0AEEBB1E001C073
:100100001D92AC33B207E1F711E0A0E0B1E0E6E800
:10011000F5E202C005900D92AE3BB107D9F710E0B1
:10012000C6E7D0E004C02197FE010E94BE10C5378B
:10013000D107C9F70E94CC0A0C94C1120C9400009C
:1001400090E0FC01EB52FF4F2491FC01EF53FF4F75
:100150003491FC01E355FF4FE491EE23C9F02223D3
:1001600039F0233001F1A8F4213019F1223029F1BE
:10017000F0E0EE0FFF1FED55FF4FA591B4918FB743
:10018000F894EC91611126C030953E233C938FBFCB
:1001900008952730A9F02830C9F0243049F780911C
:1001A00080008F7D03C0809180008F7780938000D6
:1001B000DFCF84B58F7784BDDBCF84B58F7DFBCF58
:1001C0008091B0008F778093B000D2CF8091B00043
:1001D0008F7DF9CF3E2BDACF3FB7F89480917D0227
:1001E00090917E02A0917F02B091800226B5A89BDB
:1001F00005C02F3F19F00196A11DB11D3FBFBA2FB9
:10020000A92F982F8827BC01CD01620F711D811D78
:10021000911D42E0660F771F881F991F4A95D1F7FD
:1002200008958F929F92AF92BF92CF92DF92EF92FA
:10023000FF924B015C010E94EC006B017C010E946B
:10024000EC006C197D098E099F09683E7340810599
:100250009105A8F321E0821A9108A108B10888EE5F
:10026000C80E83E0D81EE11CF11C81149104A10486
:10027000B10429F7FF90EF90DF90CF90BF90AF903F
:100280009F908F90089508950895AF92BF92CF9256
:10029000DF92EF92FF920F931F93CF93DF936C0146
:1002A0007B018B01040F151FEB015E01AE18BF0827
:1002B000C017D10759F06991D601ED91FC910190D9
:1002C000F081E02DC6010995892B79F7C501DF91F1
:1002D000CF911F910F91FF90EF90DF90CF90BF9043
:1002E000AF900895FC01538D448D252F30E0842F6D
:1002F00090E0821B930B541710F0CF96089501974E
:100300000895FC01918D828D981761F0A28DAE0F3A
:10031000BF2FB11D5D968C91928D9F5F9F73928FC1
:1003200090E008958FEF9FEF0895FC01918D828DED
:10033000981731F0828DE80FF11D858D90E00895BA
:100340008FEF9FEF0895FC01918D228D892F90E012
:10035000805C9F4F821B91098F739927089581E8D4
:1003600092E00E94A30121E0892B09F420E0822F72
:10037000089580E090E0892B29F00E94AF0181115F
:100380000C9400000895FC01A48DA80FB92FB11D95
:10039000A35ABF4F2C91848D90E001968F739927BB
:1003A000848FA689B7892C93A089B1898C91837099
:1003B00080648C93938D848D981306C00288F38992
:1003C000E02D80818F7D80830895EF92FF920F93BF
:1003D0001F93CF93DF93EC0181E0888F9B8D8C8DF1
:1003E00098131AC0E889F989808185FF15C09FB7E5
:1003F000F894EE89FF896083E889F98980818370A8
:10040000806480839FBF81E090E0DF91CF911F9156
:100410000F91FF90EF900895F62E0B8D10E00F5F77
:100420001F4F0F731127E02E8C8D8E110CC00FB64D
:1004300007FCFACFE889F989808185FFF5CFCE01E5
:100440000E94C301F1CFEB8DEC0FFD2FF11DE35A9C
:10045000FF4FF0829FB7F8940B8FEA89FB89808168
:100460008062CFCFCF93DF93EC01888D8823B9F0E2
:10047000AA89BB89E889F9898C9185FD03C08081AF
:1004800086FD0DC00FB607FCF7CF8C9185FFF2CF2C
:10049000808185FFEDCFCE010E94C301E9CFDF91BE
:1004A000CF91089508952091FF01260F3327331F20
:1004B00021323105ECF420914802FC0190E080E00B
:1004C000243069F082E00895A091FF012191AC01F0
:1004D00041525E4FA40FB52FB11D2C930196861784
:1004E00098F38091FF01680F6093FF0180E0089509
:1004F00081E008951092480281E0809347021092B3
:10050000220261E082E10E94A00061E083E10E949A
:10051000A000E9EBF0E080818E7F808380818D7F79
:10052000808388E48093B80085E48093BC000895BC
:10053000CF93DF9391E09093DE018823B9F0C091CF
:10054000B800D091BA008091BC008A7B8093BC0037
:1005500060E082E10E94A00060E083E10E94A000D0
:100560000E947A02D093BA00C093B800DF91CF9175
:1005700008950895E091770280917602E81730F4AB
:10058000F0E0E254FE4F808190E008958FEF9FEFFE
:10059000089590917702809176022FEF3FEF9817A0
:1005A00048F4E92FF0E0E254FE4F208130E09F5FF5
:1005B00090937702C9010895809176029091770215
:1005C000891B990B0895CF92DF92EF92FF920F93C0
:1005D0001F93CF93DF937C01CB018A0120914E02C0
:1005E000222389F0EB016B01C40ED51ECC15DD056D
:1005F00069F06991D701ED91FC910190F081E02DB6
:10060000C7010995F3CF642F0E945302C801DF91FF
:10061000CF911F910F91FF90EF90DF90CF900895B1
:10062000CF93DF931F92CDB7DEB7698320914E023F
:100630002223F9F020917402203258F021E030E0BA
:10064000FC013383228390E080E00F90DF91CF9113
:10065000089580917502E82FF0E0E15BFD4F9981EC
:1006600090838F5F809375028093740281E090E0A5
:10067000ECCF61E0CE0101960E945302F7CFCF92FA
:10068000DF92EF92FF920F931F93CF93DF93FC01C2
:10069000C48121E020934E02C0936F021092750234
:1006A000109274028385682B8EE193E00E94100300
:1006B000D0917402D13208F092C00E94EC006B011C
:1006C0007C0180914802811165C082E080934802DC
:1006D00081E0809347028FEF80934602109245029B
:1006E000D0934402AFE4B2E0E4E2F2E080E0D81359
:1006F00085C01092230280912302CC0FC82BC09397
:10070000230280912202813009F07CC010922202E3
:100710000E94EC006B017C01809123028093BB005E
:1007200080914A0290914B02A0914C02B0914D02EF
:10073000892B8A2B8B2B99F00E94EC0000914A02A6
:1007400010914B0220914C0230914D026C197D09A1
:100750008E099F090617170728073907E0F18091CE
:10076000BC0083FDD9CF85EC8093BC000E94EC00D7
:100770006B017C0180914802823009F445C0809170
:1007800046028F3F61F180914602803241F18091B3
:10079000460225C080914A0290914B02A0914C02E2
:1007A000B0914D02892B8A2B8B2B09F48ACF0E94A2
:1007B000EC0000914A0210914B0220914C023091C2
:1007C0004D026C197D098E099F0906171707280726
:1007D000390708F076CF809149020E949802109262
:1007E00075021092740210924E02DF91CF911F9108
:1007F0000F91FF90EF90DF90CF9008959D9191938E
:100800008F5F75CF85EEB0CF80914A0290914B02F9
:10081000A0914C02B0914D02892B8A2B8B2B09F4AD
:10082000A9CF0E94EC0000914A0210914B02209146
:100830004C0230914D026C197D098E099F090617F3
:1008400017072807390708F095CFC5CF90E080E05B
:100850000895FC0180819181009711F00C94601142
:100860000895FB0101900020E9F73197AF01461B85
:10087000570BDC01ED91FC910280F381E02D09948E
:100880008F929F92AF92BF92EF92FF920F931F931E
:10089000CF93DF93CDB7DEB7A1970FB6F894DEBF45
:1008A0000FBECDBF7C01FA01CB0119A2223008F4A2
:1008B0002AE08E010F5D1F4F822E912CB12CA12CAE
:1008C000BF01A50194010E949C10F901CA016A3080
:1008D0000CF5605DD8016E938D01232B242B252B05
:1008E00079F790E080E0109721F0BD01C7010E94E8
:1008F0003104A1960FB6F894DEBF0FBECDBFDF91D5
:10090000CF911F910F91FF90EF90BF90AF909F906C
:100910008F900895695CDECF0F931F93CF93DF9381
:10092000EC0188819981009759F02A813B81261733
:10093000370730F081E0DF91CF911F910F9108953B
:100940008B016F5F7F4F0E94E911009759F09983E7
:1009500088831B830A832C813D81232B59F7FC015B
:100960001082E8CF80E0E7CFEF92FF920F931F93C2
:10097000CF93DF93EC017B018A01BA010E948C04C2
:1009800028813981811114C02115310519F0C9015F
:100990000E946011198218821D821C821B821A8299
:1009A000CE01DF91CF911F910F91FF90EF900895AD
:1009B0001D830C83B701C9010E94BA12F1CFAF9217
:1009C000BF92CF92DF92EF92FF920F931F93CF933C
:1009D000DF93EC016B015A0179012417350720F4EC
:1009E0008B2D5901E42EF82E198218821B821A824F
:1009F0001D821C8250E040E068E871E0CE010E9458
:100A0000B404D60114960D911C91A016B10628F5D8
:100A1000E016F10608F48701D601ED91FC911197DB
:100A2000E00FF11FF08010826D917C916A0D7B1DAB
:100A300061157105F1F0FB0101900020E9F7319794
:100A4000AF01461B570BCE010E94B404F601808112
:100A50009181080F191FD801FC92CE01DF91CF912F
:100A60001F910F91FF90EF90DF90CF90BF90AF90CC
:100A7000089588819981009711F00E946011198270
:100A800018821D821C821B821A82E0CF2F923F9215
:100A90004F925F926F927F928F929F92AF92BF928E
:100AA000CF92DF92EF92FF921F93CF93DF93EC01EF
:100AB0006A017B01722EAB019601CB01B6010E9447
:100AC00097106EE371E0811126C046015701E8944A
:100AD000B7F82FEF3FEF4FE75FE7C501B4010E9482
:100AE000971081110CC02FEF3FEF4FE75FE7C50173
:100AF000B4010E940C0E62E471E0181664F02FEF4E
:100B00003FEF4FE75FE4C701B6010E94921018164D
:100B1000B4F466E471E0CE01DF91CF911F91FF90B4
:100B2000EF90DF90CF90BF90AF909F908F907F908D
:100B30006F905F904F903F902F900C9431042FEF67
:100B40003FEF4FE75FECC701B6010E940C0E87FD37
:100B5000E0CF20E030E0A901C701B6010E940C0EF1
:100B6000312C212C87FF0DC0E881F9810190F081A3
:100B7000E02D6DE2CE0109951C01F7FAF094F7F82B
:100B8000F09410E060E070E080E09FE3711641F0C7
:100B900020E030E040E251E40E94F10F1F5FF6CF09
:100BA000A70196010E94850F2B013C010E94631052
:100BB0004B015C012AE0BC01A401CE010E9440046B
:100BC0007C01E20CF31C1123E1F1C501B4010E9488
:100BD000110E9B01AC01C301B2010E94840F4B01B5
:100BE0005C01E881F9810190F081E02D6EE2CE0197
:100BF0000995E80EF91E115020F120E030E040E2A6
:100C000051E4C501B4010E94720E2B013C010E9407
:100C100063104B01B12CA12C2AE0B501A401CE0137
:100C20000E944004E80EF91EC501B4010E94110E95
:100C30009B01AC01C301B2010E94840F4B015C0116
:100C4000DACFC701DF91CF911F91FF90EF90DF9036
:100C5000CF90BF90AF909F908F907F906F905F905C
:100C60004F903F902F9008950F931F93CF938C0137
:100C7000C62F0E943F036C2F6460C8010E943F038F
:100C80006C2F6B7FC8010E943F0383EC90E00197BB
:100C9000F1F7CF911F910F9108950F931F93CF9369
:100CA000DF938C01D62FC42F607F642B0E94340603
:100CB00080E1D89FB00111246C2BC801DF91CF9146
:100CC0001F910F910C943406CF93DF93CDB7DEB70D
:100CD00028970FB6F894DEBF0FBECDBF98E0E6E0D0
:100CE000F1E0DE01119601900D929A95E1F7909155
:100CF0003203981708F48FEF90E0880F991F21E0D6
:100D000030E02C0F3D1F820F931FFC016081606853
:100D100040E08AE293E028960FB6F894DEBF0FBE5B
:100D2000CDBFDF91CF910C944D0640E061E08AE2A7
:100D300093E00E944D068BE39FE10197F1F7089540
:100D400041E00E944D0681E090E0089585ED80939A
:100D5000BC0080914A0290914B02A0914C02B0914C
:100D60004D020796A11DB11D23E0B695A795979555
:100D700087952A95D1F72091BC0024FD03C01092DD
:100D80004802089540914A0250914B0260914C02F2
:100D900070914D02452B462B472B69F30097A10517
:100DA000B10541F02AE22A95F1F700C00197A109A7
:100DB000B109E1CF809149020C9498026F927F9221
:100DC0008F929F92AF92BF92CF92DF92EF92FF925B
:100DD0000F931F93CF93DF93CDB7DEB762970FB614
:100DE000F894DEBF0FBECDBF8C015B013A010E94BB
:100DF000EC006B017C0180914802811167C081E0A9
:100E000080934802809347029FEF9093460210928E
:100E100045029FE190934402809323028091230234
:100E2000000F111F802B80932302809122028130BA
:100E300009F0B5C0109222020E94EC006B017C0107
:100E4000809123028093BB0080914A0290914B02D3
:100E5000A0914C02B0914D02892B8A2B8B2BA1F0D3
:100E60000E94EC0000914A0210914B0220914C022A
:100E700030914D026C197D098E099F0906171707DD
:100E80002807390708F443C08091BC0083FDD8CF00
:100E900085EC8093BC000E94EC006B017C0180918A
:100EA0004802813009F47DC08091450210E2803211
:100EB00010F410914502A4E2B2E0EEEBF1E080E024
:100EC000811751F19D9191938F5FFACF80914A02E2
:100ED00090914B02A0914C02B0914D02892B8A2B2C
:100EE0008B2B09F488CF0E94EC0020914A023091AC
:100EF0004B0240914C0250914D026C197D098E09B4
:100F00009F09261737074807590708F074CF8091C3
:100F100049020E94980210E0109277021093760224
:100F200064E670E080E090E00E9411011E861D865C
:100F3000188A1F861A8A198A50E040E068E871E032
:100F4000CE010D960E94B40480917702181709F41F
:100F50004AC08EE193E00E94C9029C0120523109EF
:100F60002F35310588F789831A82E988FA888FEF4F
:100F7000E81AF80AB701CE010D960E948C04882366
:100F800019F32D853E8589899A89BE016F5F7F4F50
:100F9000820F931F0E94BA12FA8AE98AD5CF85EE92
:100FA00078CF80914A0290914B02A0914C02B0916F
:100FB0004D02892B8A2B8B2B09F471CF0E94EC00F8
:100FC00000914A0210914B0220914C0230914D0247
:100FD0006C197D098E099F0906171707280739071D
:100FE00008F05DCF94CFCD84DE84C114D10439F0F4
:100FF00009891A8976010115110509F07BC0188647
:101000001F821A8619861C861B866D857E85611552
:10101000710531F049895A89CE0107960E94B404BE
:101020008B859C85892B09F4A3C0EF80F8846CE242
:1010300070E0C7010E94AF12009709F499C08C01BB
:101040000E191F09101611060CF092C0980150E0FD
:1010500040E0BE01695F7F4FCE0101960E94DF0430
:1010600089819A81009709F47BC00E94970CF50151
:101070006083718382839383CE0101960E94290449
:101080002B853C85A8014F5F5F4FBE01695F7F4F95
:10109000CE0101960E94DF0489819A81009709F4AC
:1010A00063C00E94970CF3016083718382839383F2
:1010B000CE0101960E942904CE0107960E942904C0
:1010C000CE010D960E94290462960FB6F894DEBFF9
:1010D0000FBECDBFDF91CF911F910F91FF90EF9089
:1010E000DF90CF90BF90AF909F908F907F906F9048
:1010F000089574014701EFEF8E1A9E0AF70180816F
:10110000082E000C990B0E94EB0D892B91F70150D2
:1011100011090C0D1D1DF8018081082E000C990B82
:101120000E94EB0D892B31F00E151F0518F00150B0
:101130001109F1CF0F5F1F4FA8014E195F095A8B9C
:10114000498BCE14DF0420F4B701C6010E94A61219
:10115000ED85FE8589899A89E80FF91F10824FCFA6
:1011600060E070E0CB0183CF60E070E0CB019BCF0B
:10117000F5011082118212821382F3011082118212
:101180001282138299CF1F920F920FB60F921124E1
:101190002F933F938F939F93AF93BF938091790247
:1011A00090917A02A0917B02B0917C0230917802FA
:1011B00023E0230F2D3758F50196A11DB11D209373
:1011C00078028093790290937A02A0937B02B09385
:1011D0007C0280917D0290917E02A0917F02B0916D
:1011E00080020196A11DB11D80937D0290937E0225
:1011F000A0937F02B0938002BF91AF919F918F9196
:101200003F912F910F900FBE0F901F90189526E8D9
:10121000230F0296A11DB11DD2CF1F920F920FB6C0
:101220000F9211242F933F934F935F936F937F936C
:101230008F939F93AF93BF93EF93FF9381E892E0D7
:101240000E94C301FF91EF91BF91AF919F918F9148
:101250007F916F915F914F913F912F910F900FBEB2
:101260000F901F9018951F920F920FB60F92112496
:101270002F938F939F93EF93FF93E0919102F091BF
:1012800092028081E0919702F091980282FD1BC04A
:10129000908180919A028F5F8F7320919B028217B9
:1012A00041F0E0919A02F0E0EF57FD4F958F809367
:1012B0009A02FF91EF919F918F912F910F900FBE06
:1012C0000F901F9018958081F4CF1F920F920FB648
:1012D0000F9211242F933F934F935F936F937F93BC
:1012E0008F939F93AF93BF93EF93FF938091B90038
:1012F000887F803609F44AC0F0F5883209F4A7C027
:1013000018F5803109F49BC0B8F4882309F4F9C0BA
:10131000883009F494C0FF91EF91BF91AF919F91F4
:101320008F917F916F915F914F913F912F910F908E
:101330000FBE0F901F901895883109F488C0803235
:1013400051F78093460214C0803409F49DC040F4E4
:101350008033B9F38833F9F68093460285ECB0C048
:10136000803509F485C0883509F496C0883499F62B
:101370000E94A606D0CF883909F48CC038F588378A
:1013800029F050F4883611F0803729F683E08093F5
:1013900048021092210257C0883809F47BC0803976
:1013A00019F0803809F0B7CF80912102803208F01F
:1013B00071C0E091210281E08E0F80932102809123
:1013C000BB00F0E0EF5FFD4F80833DC0803B39F014
:1013D000E0F4803A09F479C0883A09F09CCF84E0BF
:1013E00080934802109200021092FF01E091720275
:1013F000F091730209958091FF0181110FC081E086
:101400008093FF011092DF0109C0803C09F4A6CF50
:10141000883C09F4A3CF883B09F07DCFE09100021E
:1014200081E08E0F80930002F0E0E152FE4F808158
:101430008093BB00909100028091FF0129C08091B0
:1014400023028093BB0085EC8093BC0064CF909115
:10145000450280914402981758F5E091450281E0D9
:101460008E0F80934502F0E0EC5DFD4F8081E9CF67
:10147000E091450281E08E0F809345028091BB0090
:10148000F0E0EC5DFD4F8083909145028091440235
:101490009817C8F285E8D8CFE091450281E08E0F19
:1014A000809345028091BB00F0E0EC5DFD4F8083AE
:1014B0008091470281115CCF81E08093220284EA0F
:1014C0008093BC001092480226CF85EC8093BC002C
:1014D0001092480280912102803230F4E091210282
:1014E000F0E0EF5FFD4F10826091210270E0E0912B
:1014F0007002F091710281E092E009951092210250
:101500000ACF1092460234CFE1E8F2E01382128251
:1015100088EE93E0A0E0B0E084839583A683B78350
:1015200022E131E03183208325EC30E035872487C8
:1015300024EC30E03787268720EC30E0318B208B9D
:1015400021EC30E0338B228B22EC30E0358B248B86
:1015500026EC30E0378B268B118E128E138E148E74
:10156000EEE1F3E01382128284839583A683B7832E
:1015700084E291E091838083EAE2F3E013821282B5
:1015800086E391E0918380838FE3848380E1818788
:1015900082E0828713860895CF93DF93CDB7DEB7BD
:1015A00060970FB6F894DEBF0FBECDBF789484B5B8
:1015B000826084BD84B5816084BD85B5826085BD4F
:1015C00085B5816085BD80916E00816080936E00DD
:1015D00010928100809181008260809381008091CF
:1015E0008100816080938100809180008160809380
:1015F00080008091B10084608093B1008091B00040
:1016000081608093B00080917A00846080937A003A
:1016100080917A00826080937A0080917A00816064
:1016200080937A0080917A00806880937A0010928B
:10163000C1001092770210927602109275021092F9
:1016400074020E947A0283E491E090937302809383
:10165000720284E491E09093710280937002E091B1
:101660009102F091920282E08083E0918D02F091EC
:101670008E021082E0918F02F09190028FEC8083B5
:1016800010929902E0919502F091960286E0808393
:10169000E0919302F0919402808180618083E091D7
:1016A0009302F0919402808188608083E09193029C
:1016B000F0919402808180688083E0919302F091A0
:1016C000940280818F7D80830E947A0210922F0382
:1016D00080913403823018F098E090932F03809328
:1016E000320362E370E080E090E00E9411016091BB
:1016F00035038AE293E00E943F0368EE73E080E0E6
:1017000090E00E94110160E38AE293E00E943406B7
:101710000BE416E4C8010197F1F760E38AE293E075
:101720000E943406C8010197F1F760E38AE293E072
:101730000E94340683E592E00197F1F760E28AE2C5
:1017400093E00E94340660912F03606240E08AE2D9
:1017500093E00E944D0684E08093300340E06CE00B
:101760008AE293E00E944D060E94950682E08093F3
:10177000310340E066E08AE293E00E944D0640E0DB
:1017800062E08AE293E00E944D068BE39FE10197BD
:10179000F1F788E08093350360E08AE293E00E94ED
:1017A0003F030E94950680E00E9464066AE471E0AF
:1017B0008AE293E00E94310481E00E94640662E5BF
:1017C00071E08AE293E00E94310460ED77E080E00E
:1017D00090E00E94110100E010E0AE01475F5F4F12
:1017E000BE01635F7F4F81E090E00E94DE06AE01A4
:1017F0004F5F5F4FBE016B5F7F4F82E090E00E94C2
:10180000DE062D813E814F8158856D857E858F85D1
:1018100098890E94850F20E030E040E05FE30E945D
:10182000720E4B015C0129813A814B815C81698593
:101830007A858B859C850E94850F20E030E040E012
:101840005FE30E94720E6B017C016DE571E081E83F
:1018500092E00E94310422E0B501A40181E892E007
:101860000E9446056CE671E081E892E00E94310436
:1018700022E0B701A60181E892E00E94460563E8F4
:1018800071E081E892E00E94310466E871E081E84D
:1018900092E00E94310469E871E081E892E00E94E0
:1018A000310466E871E081E892E00E9431040E9410
:1018B000950680E00E9464066DEA71E08AE293E09A
:1018C0000E94310421E0B501A4018AE293E00E9464
:1018D000460564EB71E08AE293E00E94310481E006
:1018E0000E94640666EB71E08AE293E00E94310494
:1018F00021E0B701A6018AE293E00E94460564E870
:1019000071E08AE293E00E94310460ED77E080E0CC
:1019100090E00E9411010115110509F45ECF0E94AB
:10192000AF01882309F459CF0E94000056CF6627E3
:1019300077270C949B0CB0E0A0E0E1EAFCE00C946B
:10194000440F5C017B016115710519F0DB018D937A
:101950009C9385010F5F1F4FF501D0818D2F90E083
:101960000E94EB0D6C01892BB9F5DD32B9F50F5FE3
:101970001F4FD5011196DC91C1E05801F1E0AF1A7B
:10198000B10843E050E060E770E0C5010E94F40D4B
:10199000892B69F5680182E0C80ED11C45E050E052
:1019A0006BE670E0C6010E94F40D892B21F46801FA
:1019B00097E0C90ED11CE114F10419F0D701CD92C2
:1019C000DC9260E070E080E89FEFC111FFC060E052
:1019D00070E080E89FE7FAC05801BBCFDB3229F402
:1019E00085010E5F1F4FF501D181C0E0C6CF43E0F6
:1019F00050E068E670E0C5010E94F40D892BE9F023
:101A0000F80110E000E020E030E0A9015F01B0ED56
:101A10008B2E8D0E89E08815C8F19C2E689491F864
:101A20008C2F8870C2FF16C0811102C00F5F1F4F3C
:101A30003196D501DC91C92DE9CFE114F10429F0EB
:101A40000E5F1F4FF7011183008360E070E080ECB0
:101A50009FE7BCC0882311F001501109A5E0B0E058
:101A60000E94330F9B01AC01220F331F441F551FEF
:101A7000280D311D411D511D283999E939074907A4
:101A800099E15907A8F2C6609C2ED2CFAEEF8A1218
:101A900006C0C3FD3CC09C2E689493F8C9CFDF7D7F
:101AA000D534A9F580818D3239F4C061DF011296F9
:101AB000818162E070E006C0DF018B32C1F31196D4
:101AC00061E070E080535D01A61AB70A8A30F8F42D
:101AD000E0E8CE16ECE0DE065CF4B601660F771F98
:101AE000660F771FC60ED71ECC0CDD1CC80ED11C8E
:101AF0005D01FFEFAF1ABF0A8C9180538A30A8F1C5
:101B0000C4FF03C0D194C194D1080C0D1D1DC1FFA9
:101B100009C0E114F10431F081E0A81AB108D7013D
:101B2000AD92BC92CA01B9010E94110EC370C330BC
:101B300009F490584B015C0120E030E0A9010E94BB
:101B40000C0E882309F440C0CFE9D0E017FF05C090
:101B5000119501951109C7E8D0E06E01B8E1CB1AE3
:101B6000D10880E2E82EF12C0FC0D501B1CFFE01E3
:101B700025913591459154910E191F09C501B40164
:101B80000E94720E4B015C01D501C4010E151F05A8
:101B900074F72497F594E794CC16DD06A9F78A2FFD
:101BA000880F8B2F881F8F3F49F020E030E0A9017C
:101BB000C501B4010E940C0E811106C082E290E0C2
:101BC0009093370380933603C501B401CDB7DEB7D8
:101BD000ECE00C94600F91110C94DF0E803219F040
:101BE00089508550C8F70895FB01DC0141505040F1
:101BF00088F08D9181341CF08B350CF4805E6591FA
:101C000061341CF06B350CF4605E861B611171F35E
:101C1000990B0895881BFCCF0E944E0E08F481E0BA
:101C20000895E89409C097FB3EF4909580957095CF
:101C300061957F4F8F4F9F4F9923A9F0F92F96E918
:101C4000BB279395F695879577956795B795F1118D
:101C5000F8CFFAF4BB0F11F460FF1BC06F5F7F4F2A
:101C60008F4F9F4F16C0882311F096E911C077233C
:101C700021F09EE8872F762F05C0662371F096E845
:101C8000862F70E060E02AF09A95660F771F881F14
:101C9000DAF7880F9695879597F90895990F0008B8
:101CA000550FAA0BE0E8FEEF16161706E807F9072E
:101CB000C0F012161306E407F50798F0621B730BC9
:101CC000840B950B39F40A2661F0232B242B252B4A
:101CD00021F408950A2609F4A140A6958FEF811DED
:101CE000811D08950E94850E0C94F90E0E94EB0E42
:101CF00038F00E94F20E20F0952311F00C94E20EC1
:101D00000C94E80E11240C942D0F0E940A0F70F30E
:101D1000959FC1F3950F50E0551F629FF001729F90
:101D2000BB27F00DB11D639FAA27F00DB11DAA1F9F
:101D3000649F6627B00DA11D661F829F2227B00DEC
:101D4000A11D621F739FB00DA11D621F839FA00D77
:101D5000611D221F749F3327A00D611D231F849FC7
:101D6000600D211D822F762F6A2F11249F5750401E
:101D70009AF0F1F088234AF0EE0FFF1FBB1F661F99
:101D8000771F881F91505040A9F79E3F510580F062
:101D90000C94E20E0C942D0F5F3FE4F3983ED4F3C5
:101DA000869577956795B795F795E7959F5FC1F706
:101DB000FE2B880F911D9695879597F90895992781
:101DC0008827089597F99F6780E870E060E008959C
:101DD0009FEF80EC089500240A9416161706180643
:101DE0000906089500240A9412161306140605061F
:101DF0000895092E0394000C11F4882352F0BB0FB0
:101E000040F4BF2B11F460FF04C06F5F7F4F8F4F12
:101E10009F4F089557FD9058440F551F59F05F3F4D
:101E200071F04795880F97FB991F61F09F3F79F0FC
:101E300087950895121613061406551FF2CF46957E
:101E4000F1DF08C0161617061806991FF1CF869500
:101E50007105610508940895E894BB2766277727E4
:101E6000CB0197F908950E94750FA59F900DB49F1F
:101E7000900DA49F800D911D112408952F923F92E3
:101E80004F925F926F927F928F929F92AF92BF928A
:101E9000CF92DF92EF92FF920F931F93CF93DF9336
:101EA000CDB7DEB7CA1BDB0B0FB6F894DEBF0FBE93
:101EB000CDBF09942A88398848885F846E847D84E0
:101EC0008C849B84AA84B984C884DF80EE80FD80E2
:101ED0000C811B81AA81B981CE0FD11D0FB6F89458
:101EE000DEBF0FBECDBFED010895A29FB001B39F2D
:101EF000C001A39F700D811D1124911DB29F700D13
:101F0000811D1124911D08955058BB27AA270E94B6
:101F10009C0F0C94F90E0E94EB0E38F00E94F20E0A
:101F200020F039F49F3F19F426F40C94E80E0EF4D7
:101F3000E095E7FB0C94E20EE92F0E940A0F58F39C
:101F4000BA17620773078407950720F079F4A6F59E
:101F50000C942C0F0EF4E0950B2EBA2FA02D0B0134
:101F6000B90190010C01CA01A0011124FF27591BDE
:101F700099F0593F50F4503E68F11A16F040A22FE4
:101F8000232F342F4427585FF3CF46953795279555
:101F9000A795F0405395C9F77EF41F16BA0B620B54
:101FA000730B840BBAF09150A1F0FF0FBB1F661F9B
:101FB000771F881FC2F70EC0BA0F621F731F841FDE
:101FC00048F4879577956795B795F7959E3F08F004
:101FD000B0CF9395880F08F09927EE0F97958795C6
:101FE00008950E9405100C94F90E0E94F20E58F00C
:101FF0000E94EB0E40F029F45F3F29F00C94E20EB2
:1020000051110C942D0F0C94E80E0E940A0F68F3E6
:102010009923B1F3552391F3951B550BBB27AA27A1
:1020200062177307840738F09F5F5F4F220F331FDB
:10203000441FAA1FA9F335D00E2E3AF0E0E832D0A3
:1020400091505040E695001CCAF72BD0FE2F29D0A6
:10205000660F771F881FBB1F261737074807AB0778
:10206000B0E809F0BB0B802DBF01FF2793585F4FED
:102070003AF09E3F510578F00C94E20E0C942D0F2F
:102080005F3FE4F3983ED4F3869577956795B795CF
:10209000F7959F5FC9F7880F911D9695879597F9DA
:1020A0000895E1E0660F771F881FBB1F6217730753
:1020B0008407BA0720F0621B730B840BBA0BEE1F68
:1020C00088F7E09508950E94120F88F09F5798F0C6
:1020D000B92F9927B751B0F0E1F0660F771F881F2D
:1020E000991F1AF0BA95C9F714C0B13091F00E9447
:1020F0002C0FB1E008950C942C0F672F782F8827B0
:10210000B85F39F0B93FCCF3869577956795B3956D
:10211000D9F73EF490958095709561957F4F8F4FDC
:102120009F4F08950E944E0E08F48FEF08950E946D
:102130004E0E880B990B0895A1E21A2EAA1BBB1B09
:10214000FD010DC0AA1FBB1FEE1FFF1FA217B30783
:10215000E407F50720F0A21BB30BE40BF50B661F99
:10216000771F881F991F1A9469F76095709580955D
:1021700090959B01AC01BD01CF010895EE0FFF1FAB
:102180000590F491E02D09940F931F93CF93DF9363
:102190008230910510F482E090E0E0913A03F091F2
:1021A0003B0330E020E0B0E0A0E0309799F4211547
:1021B000310509F44AC0281B390B24303105D8F504
:1021C0008A819B816115710589F1FB01938382836B
:1021D000FE0111C0408151810281138148175907C6
:1021E000E0F04817590799F4109761F012960C9394
:1021F000129713961C933296CF01DF91CF911F91C6
:102200000F91089500933A0310933B03F4CF2115E7
:10221000310551F04217530738F0A901DB019A014B
:10222000BD01DF01F801C1CFEF01F9CF90933B036E
:1022300080933A03CDCFFE01E20FF31F8193919378
:102240002250310939832883D7CF20913803309128
:102250003903232B41F42091020130910301309383
:102260003903209338032091000130910101211599
:10227000310541F42DB73EB740910401509105015D
:10228000241B350BE0913803F0913903E217F30773
:10229000A0F42E1B3F0B2817390778F0AC014E5FD6
:1022A0005F4F2417350748F04E0F5F1F50933903D7
:1022B00040933803819391939FCFF0E0E0E09CCF6F
:1022C000CF93DF930097E9F0FC01329713821282DB
:1022D000A0913A03B0913B03ED0130E020E010976C
:1022E000A1F420813181820F931F20913803309116
:1022F00039032817390709F061C0F0933903E093D7
:102300003803DF91CF910895EA01CE17DF07E8F592
:102310004A815B819E0141155105B1F7E901FB83BB
:10232000EA8349915991C40FD51FEC17FD0761F459
:10233000808191810296840F951FE901998388839A
:10234000828193819B838A83F0E0E0E012968D91F5
:102350009C9113970097B9F52D913C911197CD0160
:102360000296820F931F209138033091390328176A
:10237000390739F6309751F510923B0310923A0322
:10238000B0933903A0933803BCCFD383C283408179
:102390005181840F951FC817D90761F44E5F5F4FB5
:1023A00088819981480F591F518340838A819B817D
:1023B000938382832115310509F0B0CFF0933B035D
:1023C000E0933A039ECFFD01DC01C0CF138212825D
:1023D000D7CFB0E0A0E0EFEEF1E10C94400F8C011C
:1023E000009751F4CB010E94C4108C01C801CDB7F5
:1023F000DEB7E0E10C945C0FFC01E60FF71F9C01D7
:1024000022503109E217F30708F49DC0D901CD919C
:10241000DC911197C617D70798F0C530D10530F376
:10242000CE0104978617970708F3C61BD70B229790
:10243000C193D1936D937C93CF010E946011D6CF4D
:102440005B01AC1ABD0A4C018C0E9D1EA0913A0393
:10245000B0913B03512C412CF12CE12C109731F51C
:1024600080913803909139038815990509F05CC073
:102470004616570608F058C080910001909101015E
:10248000009741F48DB79EB740910401509105012A
:10249000841B950BE817F90708F055C0F093390332
:1024A000E0933803F90171836083A0CF8D919C91F3
:1024B000119712966C90129713967C901397A8150B
:1024C000B90559F56C0142E0C40ED11CCA14DB04F5
:1024D00020F1AC014A195B09DA011296159780F0D8
:1024E0006282738251834083D9016D937C93E1149E
:1024F000F10471F0D7011396FC93EE93129776CF07
:1025000022968C0F9D1FF90191838083F301EFCFF9
:10251000F0933B03E0933A0369CF4816590608F459
:102520002C017D01D3019ACFCB010E94C4107C0104
:10253000009749F0AE01B8010E94A612C8010E949E
:102540006011870153CF10E000E050CFFB01DC01A8
:1025500002C001900D9241505040D8F70895FC01FF
:102560008191861721F08823D9F79927089531970B
:10257000CF010895FB01DC0101900D920020E1F7ED
:062580000895F894FFCF5E
:1025860000003C03800000004000140054000000DE
:102596000000E501450172013202A30181019501A6
:1025A600000000001003E3022604B902DC02C9029F
:1025B600BA0200000000A0064501260452026E6120
:1025C6006E00696E66006F76660052656164696EBC
:1025D600670053656E736F72732E2E2E00417667F9
:1025E6002048756D69646974793A20002025202C8D
:1025F600204176672054656D7065726174757265E9
:102606003A20002043000D0A002D2D2D2D2D2D2DB5
:102616002D2D2D2D2D2D2D2D2D2D2D2D2D2D2D2DE4
:102626002D2D2D2D2D2D2D2D2D2D2D2D0048756D5E
:0E263600203A2000250054656D70203A2000E7
:00000001FF
